{
	"_format": "hh-sol-artifact-1",
	"contractName": "GalileoFactory",
	"sourceName": "contracts/Factory.sol",
	"abi": [
		{
			"anonymous": false,
			"inputs": [
				{
					"indexed": false,
					"internalType": "address",
					"name": "_mintingContract",
					"type": "address"
				}
			],
			"name": "GalileoProtocolDeployed",
			"type": "event"
		},
		{
			"anonymous": false,
			"inputs": [
				{
					"indexed": false,
					"internalType": "uint8",
					"name": "version",
					"type": "uint8"
				}
			],
			"name": "Initialized",
			"type": "event"
		},
		{
			"anonymous": false,
			"inputs": [
				{
					"indexed": true,
					"internalType": "bytes32",
					"name": "role",
					"type": "bytes32"
				},
				{
					"indexed": true,
					"internalType": "bytes32",
					"name": "previousAdminRole",
					"type": "bytes32"
				},
				{
					"indexed": true,
					"internalType": "bytes32",
					"name": "newAdminRole",
					"type": "bytes32"
				}
			],
			"name": "RoleAdminChanged",
			"type": "event"
		},
		{
			"anonymous": false,
			"inputs": [
				{
					"indexed": true,
					"internalType": "bytes32",
					"name": "role",
					"type": "bytes32"
				},
				{
					"indexed": true,
					"internalType": "address",
					"name": "account",
					"type": "address"
				},
				{
					"indexed": true,
					"internalType": "address",
					"name": "sender",
					"type": "address"
				}
			],
			"name": "RoleGranted",
			"type": "event"
		},
		{
			"anonymous": false,
			"inputs": [
				{
					"indexed": true,
					"internalType": "bytes32",
					"name": "role",
					"type": "bytes32"
				},
				{
					"indexed": true,
					"internalType": "address",
					"name": "account",
					"type": "address"
				},
				{
					"indexed": true,
					"internalType": "address",
					"name": "sender",
					"type": "address"
				}
			],
			"name": "RoleRevoked",
			"type": "event"
		},
		{
			"inputs": [],
			"name": "DEFAULT_ADMIN_ROLE",
			"outputs": [
				{
					"internalType": "bytes32",
					"name": "",
					"type": "bytes32"
				}
			],
			"stateMutability": "view",
			"type": "function"
		},
		{
			"inputs": [],
			"name": "DEPLOYER_ROLE",
			"outputs": [
				{
					"internalType": "bytes32",
					"name": "",
					"type": "bytes32"
				}
			],
			"stateMutability": "view",
			"type": "function"
		},
		{
			"inputs": [],
			"name": "__GalileoFactory_init",
			"outputs": [],
			"stateMutability": "nonpayable",
			"type": "function"
		},
		{
			"inputs": [
				{
					"internalType": "string",
					"name": "name",
					"type": "string"
				},
				{
					"internalType": "string",
					"name": "symbol",
					"type": "string"
				},
				{
					"internalType": "uint256",
					"name": "fee",
					"type": "uint256"
				},
				{
					"internalType": "address",
					"name": "marketPlace",
					"type": "address"
				},
				{
					"internalType": "string",
					"name": "initial",
					"type": "string"
				}
			],
			"name": "deployMintingContract",
			"outputs": [],
			"stateMutability": "nonpayable",
			"type": "function"
		},
		{
			"inputs": [],
			"name": "getNFTaddress",
			"outputs": [
				{
					"internalType": "contract GalileoProtocol[]",
					"name": "",
					"type": "address[]"
				}
			],
			"stateMutability": "view",
			"type": "function"
		},
		{
			"inputs": [
				{
					"internalType": "bytes32",
					"name": "role",
					"type": "bytes32"
				}
			],
			"name": "getRoleAdmin",
			"outputs": [
				{
					"internalType": "bytes32",
					"name": "",
					"type": "bytes32"
				}
			],
			"stateMutability": "view",
			"type": "function"
		},
		{
			"inputs": [],
			"name": "getSerialNo",
			"outputs": [
				{
					"internalType": "uint256",
					"name": "",
					"type": "uint256"
				}
			],
			"stateMutability": "view",
			"type": "function"
		},
		{
			"inputs": [
				{
					"internalType": "bytes32",
					"name": "role",
					"type": "bytes32"
				},
				{
					"internalType": "address",
					"name": "account",
					"type": "address"
				}
			],
			"name": "grantRole",
			"outputs": [],
			"stateMutability": "nonpayable",
			"type": "function"
		},
		{
			"inputs": [
				{
					"internalType": "bytes32",
					"name": "role",
					"type": "bytes32"
				},
				{
					"internalType": "address",
					"name": "account",
					"type": "address"
				}
			],
			"name": "hasRole",
			"outputs": [
				{
					"internalType": "bool",
					"name": "",
					"type": "bool"
				}
			],
			"stateMutability": "view",
			"type": "function"
		},
		{
			"inputs": [
				{
					"internalType": "uint256",
					"name": "",
					"type": "uint256"
				}
			],
			"name": "nftContractAddress",
			"outputs": [
				{
					"internalType": "contract GalileoProtocol",
					"name": "",
					"type": "address"
				}
			],
			"stateMutability": "view",
			"type": "function"
		},
		{
			"inputs": [
				{
					"internalType": "bytes32",
					"name": "role",
					"type": "bytes32"
				},
				{
					"internalType": "address",
					"name": "account",
					"type": "address"
				}
			],
			"name": "renounceRole",
			"outputs": [],
			"stateMutability": "nonpayable",
			"type": "function"
		},
		{
			"inputs": [
				{
					"internalType": "bytes32",
					"name": "role",
					"type": "bytes32"
				},
				{
					"internalType": "address",
					"name": "account",
					"type": "address"
				}
			],
			"name": "revokeRole",
			"outputs": [],
			"stateMutability": "nonpayable",
			"type": "function"
		},
		{
			"inputs": [
				{
					"internalType": "string",
					"name": "",
					"type": "string"
				}
			],
			"name": "serials",
			"outputs": [
				{
					"internalType": "address",
					"name": "contractAddress",
					"type": "address"
				},
				{
					"internalType": "uint256",
					"name": "tokenId",
					"type": "uint256"
				}
			],
			"stateMutability": "view",
			"type": "function"
		},
		{
			"inputs": [
				{
					"internalType": "bytes4",
					"name": "interfaceId",
					"type": "bytes4"
				}
			],
			"name": "supportsInterface",
			"outputs": [
				{
					"internalType": "bool",
					"name": "",
					"type": "bool"
				}
			],
			"stateMutability": "view",
			"type": "function"
		},
		{
			"inputs": [],
			"name": "totalCount",
			"outputs": [
				{
					"internalType": "uint256",
					"name": "",
					"type": "uint256"
				}
			],
			"stateMutability": "view",
			"type": "function"
		},
		{
			"inputs": [
				{
					"internalType": "string",
					"name": "serial",
					"type": "string"
				},
				{
					"internalType": "address",
					"name": "addresses",
					"type": "address"
				},
				{
					"internalType": "uint256",
					"name": "id",
					"type": "uint256"
				}
			],
			"name": "updateSerialMap",
			"outputs": [],
			"stateMutability": "nonpayable",
			"type": "function"
		},
		{
			"inputs": [
				{
					"internalType": "uint256",
					"name": "num",
					"type": "uint256"
				}
			],
			"name": "updateSerialNo",
			"outputs": [],
			"stateMutability": "nonpayable",
			"type": "function"
		}
	],
	"bytecode": "0x608060405234801561001057600080fd5b50615a82806100206000396000f3fe60806040523480156200001157600080fd5b5060043610620001215760003560e01c806391d1485411620000af578063a4a463ed116200007a578063a4a463ed146200029e578063d547741f14620002b4578063d98edab114620002cb578063dbdb8d7614620002e2578063ecd0026114620002f957600080fd5b806391d14854146200025b5780639c4ff5091462000272578063a007e0eb146200027c578063a217fddf146200029557600080fd5b806334eafb1111620000f057806334eafb11146200020157806336568abe146200020b57806344e52e2914620002225780636b687579146200022b57600080fd5b806301ffc9a71462000126578063248a9ca3146200015257806324c2bfa414620001875780632f2ff15d14620001e8575b600080fd5b6200013d6200013736600462000b6a565b62000321565b60405190151581526020015b60405180910390f35b620001786200016336600462000b96565b60009081526065602052604090206001015490565b60405190815260200162000149565b620001c86200019836600462000c5b565b8051602081830181018051609882529282019190930120915280546001909101546001600160a01b039091169082565b604080516001600160a01b03909316835260208301919091520162000149565b620001ff620001f936600462000cb9565b62000359565b005b6200017860975481565b620001ff6200021c36600462000cb9565b62000387565b60975462000178565b620002426200023c36600462000b96565b6200040d565b6040516001600160a01b03909116815260200162000149565b6200013d6200026c36600462000cb9565b62000438565b620001ff62000463565b62000286620005b6565b60405162000149919062000ce8565b62000178600081565b620001ff620002af36600462000b96565b609755565b620001ff620002c536600462000cb9565b6200061a565b620001ff620002dc36600462000d37565b62000643565b620001ff620002f336600462000de6565b62000747565b620001787ffc425f2263d0df187444b70e47283d622c70181c5baebb1306a01edba1ce184c81565b60006001600160e01b03198216637965db0b60e01b14806200035357506301ffc9a760e01b6001600160e01b03198316145b92915050565b6000828152606560205260409020600101546200037681620007b1565b620003828383620007bd565b505050565b6001600160a01b0381163314620003fd5760405162461bcd60e51b815260206004820152602f60248201527f416363657373436f6e74726f6c3a2063616e206f6e6c792072656e6f756e636560448201526e103937b632b9903337b91039b2b63360891b60648201526084015b60405180910390fd5b62000409828262000847565b5050565b609a81815481106200041e57600080fd5b6000918252602090912001546001600160a01b0316905081565b60009182526065602090815260408084206001600160a01b0393909316845291905290205460ff1690565b600054610100900460ff1615808015620004845750600054600160ff909116105b80620004a05750303b158015620004a0575060005460ff166001145b620005055760405162461bcd60e51b815260206004820152602e60248201527f496e697469616c697a61626c653a20636f6e747261637420697320616c72656160448201526d191e481a5b9a5d1a585b1a5e995960921b6064820152608401620003f4565b6000805460ff19166001179055801562000529576000805461ff0019166101001790555b62000533620008b1565b6200054060003362000920565b6200056c7ffc425f2263d0df187444b70e47283d622c70181c5baebb1306a01edba1ce184c3362000920565b8015620005b3576000805461ff0019169055604051600181527f7f26b83ff96e1f2b6a682f133852f6798a09c465da95921460cefb38474024989060200160405180910390a15b50565b6060609a8054806020026020016040519081016040528092919081815260200182805480156200061057602002820191906000526020600020905b81546001600160a01b03168152600190910190602001808311620005f1575b5050505050905090565b6000828152606560205260409020600101546200063781620007b1565b62000382838362000847565b7ffc425f2263d0df187444b70e47283d622c70181c5baebb1306a01edba1ce184c6200066f81620007b1565b600086863333888830338a604051620006889062000b5c565b6200069c9998979695949392919062000ea4565b604051809103906000f080158015620006b9573d6000803e3d6000fd5b50609a80546001810182556000919091527f44da158ba27f9252712a74ff6a55c5d531f69609f1f6e7f17c4443a8e2089be40180546001600160a01b0319166001600160a01b0383169081179091556040519081529091507f544385397d5c8bfe2d93ab8b97961c9ac1c354fd0313724aab092338de77c9a59060200160405180910390a150505050505050565b6040518060400160405280836001600160a01b031681526020018281525060988460405162000777919062000f2d565b90815260405160209181900382019020825181546001600160a01b0319166001600160a01b03909116178155910151600190910155505050565b620005b381336200092c565b620007c9828262000438565b620004095760008281526065602090815260408083206001600160a01b03851684529091529020805460ff19166001179055620008033390565b6001600160a01b0316816001600160a01b0316837f2f8788117e7eff1d82e926ec794901d17c78024a50270940304540a733656f0d60405160405180910390a45050565b62000853828262000438565b15620004095760008281526065602090815260408083206001600160a01b0385168085529252808320805460ff1916905551339285917ff6391f5c32d9c69d2a47ea670b442974b53935d1edc7fd64eb21e047a839171b9190a45050565b600054610100900460ff166200091e5760405162461bcd60e51b815260206004820152602b60248201527f496e697469616c697a61626c653a20636f6e7472616374206973206e6f74206960448201526a6e697469616c697a696e6760a81b6064820152608401620003f4565b565b620004098282620007bd565b62000938828262000438565b620004095762000953816001600160a01b031660146200099b565b620009608360206200099b565b6040516020016200097392919062000f4b565b60408051601f198184030181529082905262461bcd60e51b8252620003f49160040162000fc4565b60606000620009ac83600262000fef565b620009b990600262001011565b67ffffffffffffffff811115620009d457620009d462000bb0565b6040519080825280601f01601f191660200182016040528015620009ff576020820181803683370190505b509050600360fc1b8160008151811062000a1d5762000a1d6200102c565b60200101906001600160f81b031916908160001a905350600f60fb1b8160018151811062000a4f5762000a4f6200102c565b60200101906001600160f81b031916908160001a905350600062000a7584600262000fef565b62000a8290600162001011565b90505b600181111562000b04576f181899199a1a9b1b9c1cb0b131b232b360811b85600f166010811062000aba5762000aba6200102c565b1a60f81b82828151811062000ad35762000ad36200102c565b60200101906001600160f81b031916908160001a90535060049490941c9362000afc8162001042565b905062000a85565b50831562000b555760405162461bcd60e51b815260206004820181905260248201527f537472696e67733a20686578206c656e67746820696e73756666696369656e746044820152606401620003f4565b9392505050565b6149f0806200105d83390190565b60006020828403121562000b7d57600080fd5b81356001600160e01b03198116811462000b5557600080fd5b60006020828403121562000ba957600080fd5b5035919050565b634e487b7160e01b600052604160045260246000fd5b600082601f83011262000bd857600080fd5b813567ffffffffffffffff8082111562000bf65762000bf662000bb0565b604051601f8301601f19908116603f0116810190828211818310171562000c215762000c2162000bb0565b8160405283815286602085880101111562000c3b57600080fd5b836020870160208301376000602085830101528094505050505092915050565b60006020828403121562000c6e57600080fd5b813567ffffffffffffffff81111562000c8657600080fd5b62000c948482850162000bc6565b949350505050565b80356001600160a01b038116811462000cb457600080fd5b919050565b6000806040838503121562000ccd57600080fd5b8235915062000cdf6020840162000c9c565b90509250929050565b6020808252825182820181905260009190848201906040850190845b8181101562000d2b5783516001600160a01b03168352928401929184019160010162000d04565b50909695505050505050565b600080600080600060a0868803121562000d5057600080fd5b853567ffffffffffffffff8082111562000d6957600080fd5b62000d7789838a0162000bc6565b9650602088013591508082111562000d8e57600080fd5b62000d9c89838a0162000bc6565b95506040880135945062000db36060890162000c9c565b9350608088013591508082111562000dca57600080fd5b5062000dd98882890162000bc6565b9150509295509295909350565b60008060006060848603121562000dfc57600080fd5b833567ffffffffffffffff81111562000e1457600080fd5b62000e228682870162000bc6565b93505062000e336020850162000c9c565b9150604084013590509250925092565b60005b8381101562000e6057818101518382015260200162000e46565b8381111562000e70576000848401525b50505050565b6000815180845262000e9081602086016020860162000e43565b601f01601f19169290920160200192915050565b600061012080835262000eba8184018d62000e76565b9050828103602084015262000ed0818c62000e76565b6001600160a01b038b811660408601528a81166060860152608085018a905288811660a086015287811660c0860152861660e0850152838103610100850152905062000f1d818562000e76565b9c9b505050505050505050505050565b6000825162000f4181846020870162000e43565b9190910192915050565b7f416363657373436f6e74726f6c3a206163636f756e742000000000000000000081526000835162000f8581601785016020880162000e43565b7001034b99036b4b9b9b4b733903937b6329607d1b601791840191820152835162000fb881602884016020880162000e43565b01602801949350505050565b60208152600062000b55602083018462000e76565b634e487b7160e01b600052601160045260246000fd5b60008160001904831182151516156200100c576200100c62000fd9565b500290565b6000821982111562001027576200102762000fd9565b500190565b634e487b7160e01b600052603260045260246000fd5b60008162001054576200105462000fd9565b50600019019056fe61018060405260036101408190526211d05360ea1b6101609081526200002991600d9190620003ef565b503480156200003757600080fd5b50604051620049f0380380620049f08339810160408190526200005a916200057f565b6040518060400160405280601081526020016f11d85b1a5b195bcb541c9bdd1bd8dbdb60821b815250604051806040016040528060018152602001603160f81b8152508a8a8160009080519060200190620000b7929190620003ef565b508051620000cd906001906020840190620003ef565b5050825160209384012082519284019290922060e08390526101008190524660a0818152604080517f8b73c3c69bb8fe3d512ecc4cf759cc79239f7b179b0ffacaa9a75d522b39400f818901819052818301979097526060810194909452608080850193909352308483018190528151808603909301835260c09485019091528151919096012090529290925261012052506200016a3362000208565b620001776000886200025a565b620001a37fd2e4c2619ea6e0faebc405d89445161c041e30fe03373ea0473da142d57d4514876200025a565b600a859055600b80546001600160a01b038087166001600160a01b031992831617909255600c805492861692909116919091179055620001e3826200026a565b8051620001f890600f906020840190620003ef565b50505050505050505050620006b5565b600880546001600160a01b038381166001600160a01b0319831681179093556040519116919082907f8be0079c531659141344cd1fd0a4f28419497f9722a3daafe3b4186f6b6457e090600090a35050565b620002668282620002ed565b5050565b6200027462000391565b6001600160a01b038116620002df5760405162461bcd60e51b815260206004820152602660248201527f4f776e61626c653a206e6577206f776e657220697320746865207a65726f206160448201526564647265737360d01b60648201526084015b60405180910390fd5b620002ea8162000208565b50565b60008281526007602090815260408083206001600160a01b038516845290915290205460ff16620002665760008281526007602090815260408083206001600160a01b03851684529091529020805460ff191660011790556200034d3390565b6001600160a01b0316816001600160a01b0316837f2f8788117e7eff1d82e926ec794901d17c78024a50270940304540a733656f0d60405160405180910390a45050565b6008546001600160a01b03163314620003ed5760405162461bcd60e51b815260206004820181905260248201527f4f776e61626c653a2063616c6c6572206973206e6f7420746865206f776e65726044820152606401620002d6565b565b828054620003fd9062000678565b90600052602060002090601f0160209004810192826200042157600085556200046c565b82601f106200043c57805160ff19168380011785556200046c565b828001600101855582156200046c579182015b828111156200046c5782518255916020019190600101906200044f565b506200047a9291506200047e565b5090565b5b808211156200047a57600081556001016200047f565b634e487b7160e01b600052604160045260246000fd5b600082601f830112620004bd57600080fd5b81516001600160401b0380821115620004da57620004da62000495565b604051601f8301601f19908116603f0116810190828211818310171562000505576200050562000495565b816040528381526020925086838588010111156200052257600080fd5b600091505b8382101562000546578582018301518183018401529082019062000527565b83821115620005585760008385830101525b9695505050505050565b80516001600160a01b03811681146200057a57600080fd5b919050565b60008060008060008060008060006101208a8c0312156200059f57600080fd5b89516001600160401b0380821115620005b757600080fd5b620005c58d838e01620004ab565b9a5060208c0151915080821115620005dc57600080fd5b620005ea8d838e01620004ab565b9950620005fa60408d0162000562565b98506200060a60608d0162000562565b975060808c015196506200062160a08d0162000562565b95506200063160c08d0162000562565b94506200064160e08d0162000562565b93506101008c01519150808211156200065957600080fd5b50620006688c828d01620004ab565b9150509295985092959850929598565b600181811c908216806200068d57607f821691505b60208210811415620006af57634e487b7160e01b600052602260045260246000fd5b50919050565b60805160a05160c05160e05161010051610120516142eb6200070560003960006130d401526000613123015260006130fe0152600061305701526000613081015260006130ab01526142eb6000f3fe60806040526004361061023b5760003560e01c806369fe0e2d1161012e5780639e6eda18116100ab578063ced72f871161006f578063ced72f871461073b578063d547741f14610750578063e9653d1714610770578063e985e9c514610790578063f2fde38b146107d957600080fd5b80639e6eda1814610634578063a217fddf146106c6578063a22cb465146106db578063b88d4fde146106fb578063c87b56dd1461071b57600080fd5b8063880ce74f116100f2578063880ce74f146105ae57806389cd9e9d146105ce5780638da5cb5b146105e157806391d14854146105ff57806395d89b411461061f57600080fd5b806369fe0e2d1461051957806370a0823114610539578063715018a6146105595780637ce283661461056e57806384262ba71461058e57600080fd5b806323b872dd116101bc57806336568abe1161018057806336568abe1461047957806342842e0e146104995780635f5d1aa3146104b957806360c6a3c8146104d95780636352211e146104f957600080fd5b806323b872dd146103c3578063248a9ca3146103e357806326d9dae8146104135780632f2ff15d146104285780632fb565e81461044857600080fd5b8063081812fc11610203578063081812fc14610316578063095ea7b31461034e5780630d26a5de1461036e5780630f022d501461038157806318160ddd146103ae57600080fd5b806301ffc9a714610240578063022f23541461027557806305751204146102a557806305d85eda146102c757806306fdde03146102f4575b600080fd5b34801561024c57600080fd5b5061026061025b366004613589565b6107f9565b60405190151581526020015b60405180910390f35b34801561028157600080fd5b5061029760008051602061429683398151915281565b60405190815260200161026c565b3480156102b157600080fd5b506102c56102c0366004613663565b610819565b005b3480156102d357600080fd5b506102976102e23660046136c5565b60126020526000908152604090205481565b34801561030057600080fd5b506103096109b0565b60405161026c9190613738565b34801561032257600080fd5b5061033661033136600461374b565b610a42565b6040516001600160a01b03909116815260200161026c565b34801561035a57600080fd5b506102c5610369366004613764565b610a69565b6102c561037c366004613840565b610b7f565b34801561038d57600080fd5b5061029761039c3660046136c5565b60146020526000908152604090205481565b3480156103ba57600080fd5b50600954610297565b3480156103cf57600080fd5b506102c56103de3660046138a7565b610f11565b3480156103ef57600080fd5b506102976103fe36600461374b565b60009081526007602052604090206001015490565b34801561041f57600080fd5b50610309610f42565b34801561043457600080fd5b506102c56104433660046138e3565b610f51565b34801561045457600080fd5b5061046861046336600461390f565b610f76565b60405161026c959493929190613931565b34801561048557600080fd5b506102c56104943660046138e3565b6110ca565b3480156104a557600080fd5b506102c56104b43660046138a7565b611148565b3480156104c557600080fd5b506102c56104d43660046139db565b611163565b3480156104e557600080fd5b506102c56104f4366004613a34565b6113d8565b34801561050557600080fd5b5061033661051436600461374b565b61164b565b34801561052557600080fd5b506102c561053436600461374b565b6116ab565b34801561054557600080fd5b506102976105543660046136c5565b6116f7565b34801561056557600080fd5b506102c561177d565b34801561057a57600080fd5b506102c5610589366004613a6c565b611791565b34801561059a57600080fd5b506102c56105a9366004613aa0565b6117bc565b3480156105ba57600080fd5b506103096105c936600461374b565b61187b565b6102c56105dc366004613ae3565b611915565b3480156105ed57600080fd5b506008546001600160a01b0316610336565b34801561060b57600080fd5b5061026061061a3660046138e3565b611d53565b34801561062b57600080fd5b50610309611d7e565b34801561064057600080fd5b5061069461064f366004613764565b60116020908152600092835260408084209091529082529020805460018201546002830154600384015460049094015492936001600160a01b03928316939192169085565b604080519586526001600160a01b0394851660208701528501929092529091166060830152608082015260a00161026c565b3480156106d257600080fd5b50610297600081565b3480156106e757600080fd5b506102c56106f6366004613b53565b611d8d565b34801561070757600080fd5b506102c5610716366004613b8a565b611d98565b34801561072757600080fd5b5061030961073636600461374b565b611dd0565b34801561074757600080fd5b50600a54610297565b34801561075c57600080fd5b506102c561076b3660046138e3565b611ee1565b34801561077c57600080fd5b506102c561078b366004613663565b611f06565b34801561079c57600080fd5b506102606107ab366004613c05565b6001600160a01b03918216600090815260056020908152604080832093909416825291909152205460ff1690565b3480156107e557600080fd5b506102c56107f43660046136c5565b612051565b6000610804826120ca565b8061081357506108138261211a565b92915050565b336108238361164b565b6001600160a01b03161461087e5760405162461bcd60e51b815260206004820152601f60248201527f4552433732313a2043616c6c6572206973206e6f7420746865206f776e65720060448201526064015b60405180910390fd5b600061088983611dd0565b9050610895838361213f565b6040805160a0810182528481523360208083018281528385018681526060850188905242608086015260008981526013845286812094815260148452868120548152938352949092208351815591516001830180546001600160a01b0319166001600160a01b03909216919091179055925180519293919261091d926002850192019061345f565b506060820151805161093991600384019160209091019061345f565b506080919091015160049091015533600090815260146020526040812080549161096283613c45565b91905055336001600160a01b03167f87ad85a3307ce3203869a62508da1c4c9052f4f0f305a9227405996c58eb65a38585856040516109a393929190613c60565b60405180910390a3505050565b6060600080546109bf90613c95565b80601f01602080910402602001604051908101604052809291908181526020018280546109eb90613c95565b8015610a385780601f10610a0d57610100808354040283529160200191610a38565b820191906000526020600020905b815481529060010190602001808311610a1b57829003601f168201915b5050505050905090565b6000610a4d826121d9565b506000908152600460205260409020546001600160a01b031690565b6000610a748261164b565b9050806001600160a01b0316836001600160a01b03161415610ae25760405162461bcd60e51b815260206004820152602160248201527f4552433732313a20617070726f76616c20746f2063757272656e74206f776e656044820152603960f91b6064820152608401610875565b336001600160a01b0382161480610afe5750610afe81336107ab565b610b705760405162461bcd60e51b815260206004820152603e60248201527f4552433732313a20617070726f76652063616c6c6572206973206e6f7420746f60448201527f6b656e206f776e6572206e6f7220617070726f76656420666f7220616c6c00006064820152608401610875565b610b7a8383612238565b505050565b600080516020614296833981519152610b97816122a6565b6096855110610bb85760405162461bcd60e51b815260040161087590613cd0565b600085516001600160401b03811115610bd357610bd36135a6565b604051908082528060200260200182016040528015610bfc578160200160208202803683370190505b50905060005b8651811015610e9d5760098054906000610c1b83613c45565b9190505550610c2c336009546122b0565b610c51600954888381518110610c4457610c44613d07565b602002602001015161213f565b600954828281518110610c6657610c66613d07565b6020908102919091010152600b54610c88906001600160a01b03166001611d8d565b600c54604080516344e52e2960e01b815290516001600160a01b039092169160009183916344e52e2991600480820192602092909190829003018187875af1158015610cd8573d6000803e3d6000fd5b505050506040513d601f19601f82011682018060405250810190610cfc9190613d1d565b905080610d0881613c45565b60405163a4a463ed60e01b8152600481018290529092506001600160a01b038416915063a4a463ed90602401600060405180830381600087803b158015610d4e57600080fd5b505af1158015610d62573d6000803e3d6000fd5b50505050600d600f610d73836122ca565b604051602001610d8593929190613da5565b60405160208183030381529060405260109080519060200190610da992919061345f565b50600954604051636dedc6bb60e11b81526001600160a01b0384169163dbdb8d7691610ddd91601091309190600401613e4b565b600060405180830381600087803b158015610df757600080fd5b505af1158015610e0b573d6000803e3d6000fd5b5050600e8054600181018255600091909152601080547fbb7b4a454dc3493923482f07822329ed19e8244eff582cc204f8554c3620c3fd90920193509150610e5290613c95565b610e5d9291906134e3565b50600954600090815260156020526040902060108054610e7c90613c95565b610e879291906134e3565b5050508080610e9590613c45565b915050610c02565b506000865185610ead9190613e79565b9050610eba8187866123c7565b836001600160a01b0316336001600160a01b03167ffbd026eeb38ded99122440ed746c525677dba3f851d0683f3e0172e3eff8d47c84600e604051610f00929190613ed3565b60405180910390a350505050505050565b610f1b3382612554565b610f375760405162461bcd60e51b815260040161087590613f49565b610b7a8383836125d2565b6060600f80546109bf90613c95565b600082815260076020526040902060010154610f6c816122a6565b610b7a838361276e565b601360209081526000928352604080842090915290825290208054600182015460028301805492936001600160a01b0390921692610fb390613c95565b80601f0160208091040260200160405190810160405280929190818152602001828054610fdf90613c95565b801561102c5780601f106110015761010080835404028352916020019161102c565b820191906000526020600020905b81548152906001019060200180831161100f57829003601f168201915b50505050509080600301805461104190613c95565b80601f016020809104026020016040519081016040528092919081815260200182805461106d90613c95565b80156110ba5780601f1061108f576101008083540402835291602001916110ba565b820191906000526020600020905b81548152906001019060200180831161109d57829003601f168201915b5050505050908060040154905085565b6001600160a01b038116331461113a5760405162461bcd60e51b815260206004820152602f60248201527f416363657373436f6e74726f6c3a2063616e206f6e6c792072656e6f756e636560448201526e103937b632b9903337b91039b2b63360891b6064820152608401610875565b61114482826127f4565b5050565b610b7a83838360405180602001604052806000815250611d98565b60008051602061429683398151915261117b816122a6565b825182511461119c5760405162461bcd60e51b815260040161087590613cd0565b600082516001600160401b038111156111b7576111b76135a6565b6040519080825280602002602001820160405280156111e0578160200160208202803683370190505b509050606060005b845181101561136c5761121386828151811061120657611206613d07565b6020026020010151611dd0565b915061124486828151811061122a5761122a613d07565b6020026020010151868381518110610c4457610c44613d07565b6040518060a0016040528087838151811061126157611261613d07565b60200260200101518152602001336001600160a01b0316815260200183815260200186838151811061129557611295613d07565b6020026020010151815260200142815250601360008884815181106112bc576112bc613d07565b6020908102919091018101518252818101929092526040908101600090812033825260148452828220548252835281902083518155838301516001820180546001600160a01b0319166001600160a01b0390921691909117905590830151805191926113309260028501929091019061345f565b506060820151805161134c91600384019160209091019061345f565b50608091909101516004909101558061136481613c45565b9150506111e8565b5033600090815260146020526040812080549161138883613c45565b91905055336001600160a01b03167ff84343f31f3ba511b0f7437302edde3781e5087d1f466db95ea7e93a43a5597f8487856040516113c993929190613f97565b60405180910390a35050505050565b6000805160206142968339815191526113f0816122a6565b6009805490600061140083613c45565b9190505550611411336009546122b0565b61141d6009548661213f565b600b54611434906001600160a01b03166001611d8d565b61143f8385846123c7565b600c54604080516344e52e2960e01b815290516001600160a01b039092169160009183916344e52e2991600480820192602092909190829003018187875af115801561148f573d6000803e3d6000fd5b505050506040513d601f19601f820116820180604052508101906114b39190613d1d565b9050806114bf81613c45565b60405163a4a463ed60e01b8152600481018290529092506001600160a01b038416915063a4a463ed90602401600060405180830381600087803b15801561150557600080fd5b505af1158015611519573d6000803e3d6000fd5b50505050600d600f61152a836122ca565b60405160200161153c93929190613da5565b6040516020818303038152906040526010908051906020019061156092919061345f565b50600954604051636dedc6bb60e11b81526001600160a01b0384169163dbdb8d769161159491601091309190600401613e4b565b600060405180830381600087803b1580156115ae57600080fd5b505af11580156115c2573d6000803e3d6000fd5b505060095460009081526015602052604090206010805491935091506115e790613c95565b6115f29291906134e3565b50836001600160a01b0316600954336001600160a01b03167f429d14c98263a67a4a1f62e23699216d5c79ccb511e4460a56e5b5bc7fc87317601060405161163a919061401c565b60405180910390a450505050505050565b6000818152600260205260408120546001600160a01b0316806108135760405162461bcd60e51b8152602060048201526018602482015277115490cdcc8c4e881a5b9d985b1a59081d1bdad95b88125160421b6044820152606401610875565b6000805160206142968339815191526116c3816122a6565b600a82905560405182907facd827be3e57e81a1a507e29e5a32377e60a460332959ba92ab6286dd5181d5290600090a25050565b60006001600160a01b0382166117615760405162461bcd60e51b815260206004820152602960248201527f4552433732313a2061646472657373207a65726f206973206e6f7420612076616044820152683634b21037bbb732b960b91b6064820152608401610875565b506001600160a01b031660009081526003602052604090205490565b61178561285b565b61178f60006128b5565b565b6000805160206142968339815191526117a9816122a6565b8151610b7a90600f90602085019061345f565b6000805160206142968339815191526117d4816122a6565b60968251106117f55760405162461bcd60e51b815260040161087590613cd0565b60005b825181101561183757611825338585848151811061181857611818613d07565b6020026020010151611148565b8061182f81613c45565b9150506117f8565b50826001600160a01b0316336001600160a01b03167fbcbe7d6c5b63fe8107fbd8c2d742c0e8e2118060c5cc94c8c96f7655791ef53c846040516109a3919061402f565b6015602052600090815260409020805461189490613c95565b80601f01602080910402602001604051908101604052809291908181526020018280546118c090613c95565b801561190d5780601f106118e25761010080835404028352916020019161190d565b820191906000526020600020905b8154815290600101906020018083116118f057829003601f168201915b505050505081565b600061192084612907565b905061193a60008051602061429683398151915282611d53565b61197f5760405162461bcd60e51b815260206004820152601660248201527514da59db985d1d5c99481b9bdd0815995c9a599a595960521b6044820152606401610875565b6009805490600061198f83613c45565b91905055506119a0336009546122b0565b6009546119eb906119b18680614042565b8080601f01602080910402602001604051908101604052809392919081815260200183838082843760009201919091525061213f92505050565b6119fb60608501604086016136c5565b6040516323b872dd60e01b81523360048201526001600160a01b0385811660248301526020870135604483015291909116906323b872dd906064016020604051808303816000875af1158015611a55573d6000803e3d6000fd5b505050506040513d601f19601f82011682018060405250810190611a799190614088565b50600b54611a91906001600160a01b03166001611d8d565b60006064600a548660200135611aa79190613e79565b611ab191906140bb565b9050611ac360608601604087016136c5565b6040516323b872dd60e01b81526001600160a01b03858116600483015286811660248301526044820184905291909116906323b872dd906064016020604051808303816000875af1158015611b1c573d6000803e3d6000fd5b505050506040513d601f19601f82011682018060405250810190611b409190614088565b50600c54604080516344e52e2960e01b815290516001600160a01b039092169160009183916344e52e2991600480820192602092909190829003018187875af1158015611b91573d6000803e3d6000fd5b505050506040513d601f19601f82011682018060405250810190611bb59190613d1d565b905080611bc181613c45565b60405163a4a463ed60e01b8152600481018290529092506001600160a01b038416915063a4a463ed90602401600060405180830381600087803b158015611c0757600080fd5b505af1158015611c1b573d6000803e3d6000fd5b50505050600d600f611c2c836122ca565b604051602001611c3e93929190613da5565b60405160208183030381529060405260109080519060200190611c6292919061345f565b50600954604051636dedc6bb60e11b81526001600160a01b0384169163dbdb8d7691611c9691601091309190600401613e4b565b600060405180830381600087803b158015611cb057600080fd5b505af1158015611cc4573d6000803e3d6000fd5b50506009546000908152601560205260409020601080549193509150611ce990613c95565b611cf49291906134e3565b50600954336001600160a01b0316856001600160a01b03167fd8a93ee1e372999e0c3b38c15fbbea599bc7b39a99f1fd3480bcdb917198b4b38a602001358a60405161163a9291909182526001600160a01b0316602082015260400190565b60009182526007602090815260408084206001600160a01b0393909316845291905290205460ff1690565b6060600180546109bf90613c95565b6111443383836129f8565b611da23383612554565b611dbe5760405162461bcd60e51b815260040161087590613f49565b611dca84848484612abf565b50505050565b6060611ddb826121d9565b60008281526006602052604081208054611df490613c95565b80601f0160208091040260200160405190810160405280929190818152602001828054611e2090613c95565b8015611e6d5780601f10611e4257610100808354040283529160200191611e6d565b820191906000526020600020905b815481529060010190602001808311611e5057829003601f168201915b505050505090506000611e8b60408051602081019091526000815290565b9050805160001415611e9e575092915050565b815115611ed0578082604051602001611eb89291906140cf565b60405160208183030381529060405292505050919050565b611ed984612af2565b949350505050565b600082815260076020526040902060010154611efc816122a6565b610b7a83836127f4565b600080516020614296833981519152611f1e816122a6565b6000611f2984611dd0565b9050611f35848461213f565b6040805160a0810182528581523360208083018281528385018681526060850189905242608086015260008a81526013845286812094815260148452868120548152938352949092208351815591516001830180546001600160a01b0319166001600160a01b039092169190911790559251805192939192611fbd926002850192019061345f565b5060608201518051611fd991600384019160209091019061345f565b506080919091015160049091015533600090815260146020526040812080549161200283613c45565b91905055336001600160a01b03167f87ad85a3307ce3203869a62508da1c4c9052f4f0f305a9227405996c58eb65a386868560405161204393929190613c60565b60405180910390a350505050565b61205961285b565b6001600160a01b0381166120be5760405162461bcd60e51b815260206004820152602660248201527f4f776e61626c653a206e6577206f776e657220697320746865207a65726f206160448201526564647265737360d01b6064820152608401610875565b6120c7816128b5565b50565b60006001600160e01b031982166380ac58cd60e01b14806120fb57506001600160e01b03198216635b5e139f60e01b145b8061081357506301ffc9a760e01b6001600160e01b0319831614610813565b60006001600160e01b03198216637965db0b60e01b14806108135750610813826120ca565b6000828152600260205260409020546001600160a01b03166121ba5760405162461bcd60e51b815260206004820152602e60248201527f45524337323155524953746f726167653a2055524920736574206f66206e6f6e60448201526d32bc34b9ba32b73a103a37b5b2b760911b6064820152608401610875565b60008281526006602090815260409091208251610b7a9284019061345f565b6000818152600260205260409020546001600160a01b03166120c75760405162461bcd60e51b8152602060048201526018602482015277115490cdcc8c4e881a5b9d985b1a59081d1bdad95b88125160421b6044820152606401610875565b600081815260046020526040902080546001600160a01b0319166001600160a01b038416908117909155819061226d8261164b565b6001600160a01b03167f8c5be1e5ebec7d5bd14f71427d1e84f3dd0314c0f7b2291e5b200ac8c7c3b92560405160405180910390a45050565b6120c78133612b66565b611144828260405180602001604052806000815250612bca565b6060816122ee5750506040805180820190915260018152600360fc1b602082015290565b8160005b8115612318578061230281613c45565b91506123119050600a836140bb565b91506122f2565b6000816001600160401b03811115612332576123326135a6565b6040519080825280601f01601f19166020018201604052801561235c576020820181803683370190505b5090505b8415611ed9576123716001836140fe565b915061237e600a86614115565b612389906030614129565b60f81b81838151811061239e5761239e613d07565b60200101906001600160f81b031916908160001a9053506123c0600a866140bb565b9450612360565b60006064600a54856123d99190613e79565b6123e391906140bb565b6040805160a0810182528681526001600160a01b03868116602080840191825283850186815233606086018181524260808801908152600083815260118652898120601287528a82208054835296528981209851895595516001808a018054928a166001600160a01b0319938416179055945160028a0155915160038901805491891691909316179091555160049687015591548352918590209091015493516323b872dd60e01b8152878316938101939093526024830152604482018490529293509116906323b872dd906064016020604051808303816000875af11580156124d1573d6000803e3d6000fd5b505050506040513d601f19601f820116820180604052508101906124f59190614088565b5033600081815260126020526040812080548493889390927f0682cc575d549ef0d097c841c299443e0e82e1305d01882f4dbc51d239413770929161253983613c45565b9091555060405190815260200160405180910390a450505050565b6000806125608361164b565b9050806001600160a01b0316846001600160a01b031614806125a757506001600160a01b0380821660009081526005602090815260408083209388168352929052205460ff165b80611ed95750836001600160a01b03166125c084610a42565b6001600160a01b031614949350505050565b826001600160a01b03166125e58261164b565b6001600160a01b0316146126495760405162461bcd60e51b815260206004820152602560248201527f4552433732313a207472616e736665722066726f6d20696e636f72726563742060448201526437bbb732b960d91b6064820152608401610875565b6001600160a01b0382166126ab5760405162461bcd60e51b8152602060048201526024808201527f4552433732313a207472616e7366657220746f20746865207a65726f206164646044820152637265737360e01b6064820152608401610875565b6126b6600082612238565b6001600160a01b03831660009081526003602052604081208054600192906126df9084906140fe565b90915550506001600160a01b038216600090815260036020526040812080546001929061270d908490614129565b909155505060008181526002602052604080822080546001600160a01b0319166001600160a01b0386811691821790925591518493918716917fddf252ad1be2c89b69c2b068fc378daa952ba7f163c4a11628f55a4df523b3ef91a4505050565b6127788282611d53565b6111445760008281526007602090815260408083206001600160a01b03851684529091529020805460ff191660011790556127b03390565b6001600160a01b0316816001600160a01b0316837f2f8788117e7eff1d82e926ec794901d17c78024a50270940304540a733656f0d60405160405180910390a45050565b6127fe8282611d53565b156111445760008281526007602090815260408083206001600160a01b0385168085529252808320805460ff1916905551339285917ff6391f5c32d9c69d2a47ea670b442974b53935d1edc7fd64eb21e047a839171b9190a45050565b6008546001600160a01b0316331461178f5760405162461bcd60e51b815260206004820181905260248201527f4f776e61626c653a2063616c6c6572206973206e6f7420746865206f776e65726044820152606401610875565b600880546001600160a01b038381166001600160a01b0319831681179093556040519116919082907f8be0079c531659141344cd1fd0a4f28419497f9722a3daafe3b4186f6b6457e090600090a35050565b6000806129a97ff1aad62298e89a773810bda7c04eed54e1dff65977862a39f83cfe5b06ccb5e66129388580614042565b604051612946929190614141565b6040518091039020856020013586604001602081019061296691906136c5565b60408051602081019590955284019290925260608301526001600160a01b0316608082015260a00160405160208183030381529060405280519060200120612bfd565b90506000611ed9826129be6060870187614042565b8080601f016020809104026020016040519081016040528093929190818152602001838380828437600092019190915250612c4b92505050565b816001600160a01b0316836001600160a01b03161415612a5a5760405162461bcd60e51b815260206004820152601960248201527f4552433732313a20617070726f766520746f2063616c6c6572000000000000006044820152606401610875565b6001600160a01b03838116600081815260056020908152604080832094871680845294825291829020805460ff191686151590811790915591519182527f17307eab39ab6107e8899845ad3d59bd9653f200f220920489ca2b5937696c3191016109a3565b612aca8484846125d2565b612ad684848484612c6f565b611dca5760405162461bcd60e51b815260040161087590614151565b6060612afd826121d9565b6000612b1460408051602081019091526000815290565b90506000815111612b345760405180602001604052806000815250612b5f565b80612b3e846122ca565b604051602001612b4f9291906140cf565b6040516020818303038152906040525b9392505050565b612b708282611d53565b61114457612b88816001600160a01b03166014612d6d565b612b93836020612d6d565b604051602001612ba49291906141a3565b60408051601f198184030181529082905262461bcd60e51b825261087591600401613738565b612bd48383612f08565b612be16000848484612c6f565b610b7a5760405162461bcd60e51b815260040161087590614151565b6000610813612c0a61304a565b8360405161190160f01b6020820152602281018390526042810182905260009060620160405160208183030381529060405280519060200120905092915050565b6000806000612c5a8585613171565b91509150612c67816131b7565b509392505050565b60006001600160a01b0384163b15612d6257604051630a85bd0160e11b81526001600160a01b0385169063150b7a0290612cb3903390899088908890600401614218565b6020604051808303816000875af1925050508015612cee575060408051601f3d908101601f19168201909252612ceb9181019061424b565b60015b612d48573d808015612d1c576040519150601f19603f3d011682016040523d82523d6000602084013e612d21565b606091505b508051612d405760405162461bcd60e51b815260040161087590614151565b805181602001fd5b6001600160e01b031916630a85bd0160e11b149050611ed9565b506001949350505050565b60606000612d7c836002613e79565b612d87906002614129565b6001600160401b03811115612d9e57612d9e6135a6565b6040519080825280601f01601f191660200182016040528015612dc8576020820181803683370190505b509050600360fc1b81600081518110612de357612de3613d07565b60200101906001600160f81b031916908160001a905350600f60fb1b81600181518110612e1257612e12613d07565b60200101906001600160f81b031916908160001a9053506000612e36846002613e79565b612e41906001614129565b90505b6001811115612eb9576f181899199a1a9b1b9c1cb0b131b232b360811b85600f1660108110612e7557612e75613d07565b1a60f81b828281518110612e8b57612e8b613d07565b60200101906001600160f81b031916908160001a90535060049490941c93612eb281614268565b9050612e44565b508315612b5f5760405162461bcd60e51b815260206004820181905260248201527f537472696e67733a20686578206c656e67746820696e73756666696369656e746044820152606401610875565b6001600160a01b038216612f5e5760405162461bcd60e51b815260206004820181905260248201527f4552433732313a206d696e7420746f20746865207a65726f20616464726573736044820152606401610875565b6000818152600260205260409020546001600160a01b031615612fc35760405162461bcd60e51b815260206004820152601c60248201527f4552433732313a20746f6b656e20616c7265616479206d696e746564000000006044820152606401610875565b6001600160a01b0382166000908152600360205260408120805460019290612fec908490614129565b909155505060008181526002602052604080822080546001600160a01b0319166001600160a01b03861690811790915590518392907fddf252ad1be2c89b69c2b068fc378daa952ba7f163c4a11628f55a4df523b3ef908290a45050565b6000306001600160a01b037f0000000000000000000000000000000000000000000000000000000000000000161480156130a357507f000000000000000000000000000000000000000000000000000000000000000046145b156130cd57507f000000000000000000000000000000000000000000000000000000000000000090565b50604080517f00000000000000000000000000000000000000000000000000000000000000006020808301919091527f0000000000000000000000000000000000000000000000000000000000000000828401527f000000000000000000000000000000000000000000000000000000000000000060608301524660808301523060a0808401919091528351808403909101815260c0909201909252805191012090565b6000808251604114156131a85760208301516040840151606085015160001a61319c87828585613372565b945094505050506131b0565b506000905060025b9250929050565b60008160048111156131cb576131cb61427f565b14156131d45750565b60018160048111156131e8576131e861427f565b14156132365760405162461bcd60e51b815260206004820152601860248201527f45434453413a20696e76616c6964207369676e617475726500000000000000006044820152606401610875565b600281600481111561324a5761324a61427f565b14156132985760405162461bcd60e51b815260206004820152601f60248201527f45434453413a20696e76616c6964207369676e6174757265206c656e677468006044820152606401610875565b60038160048111156132ac576132ac61427f565b14156133055760405162461bcd60e51b815260206004820152602260248201527f45434453413a20696e76616c6964207369676e6174757265202773272076616c604482015261756560f01b6064820152608401610875565b60048160048111156133195761331961427f565b14156120c75760405162461bcd60e51b815260206004820152602260248201527f45434453413a20696e76616c6964207369676e6174757265202776272076616c604482015261756560f01b6064820152608401610875565b6000807f7fffffffffffffffffffffffffffffff5d576e7357a4501ddfe92f46681b20a08311156133a95750600090506003613456565b8460ff16601b141580156133c157508460ff16601c14155b156133d25750600090506004613456565b6040805160008082526020820180845289905260ff881692820192909252606081018690526080810185905260019060a0016020604051602081039080840390855afa158015613426573d6000803e3d6000fd5b5050604051601f1901519150506001600160a01b03811661344f57600060019250925050613456565b9150600090505b94509492505050565b82805461346b90613c95565b90600052602060002090601f01602090048101928261348d57600085556134d3565b82601f106134a657805160ff19168380011785556134d3565b828001600101855582156134d3579182015b828111156134d35782518255916020019190600101906134b8565b506134df92915061355e565b5090565b8280546134ef90613c95565b90600052602060002090601f01602090048101928261351157600085556134d3565b82601f1061352257805485556134d3565b828001600101855582156134d357600052602060002091601f016020900482015b828111156134d3578254825591600101919060010190613543565b5b808211156134df576000815560010161355f565b6001600160e01b0319811681146120c757600080fd5b60006020828403121561359b57600080fd5b8135612b5f81613573565b634e487b7160e01b600052604160045260246000fd5b604051601f8201601f191681016001600160401b03811182821017156135e4576135e46135a6565b604052919050565b60006001600160401b03831115613605576136056135a6565b613618601f8401601f19166020016135bc565b905082815283838301111561362c57600080fd5b828260208301376000602084830101529392505050565b600082601f83011261365457600080fd5b612b5f838335602085016135ec565b6000806040838503121561367657600080fd5b8235915060208301356001600160401b0381111561369357600080fd5b61369f85828601613643565b9150509250929050565b80356001600160a01b03811681146136c057600080fd5b919050565b6000602082840312156136d757600080fd5b612b5f826136a9565b60005b838110156136fb5781810151838201526020016136e3565b83811115611dca5750506000910152565b600081518084526137248160208601602086016136e0565b601f01601f19169290920160200192915050565b602081526000612b5f602083018461370c565b60006020828403121561375d57600080fd5b5035919050565b6000806040838503121561377757600080fd5b613780836136a9565b946020939093013593505050565b60006001600160401b038211156137a7576137a76135a6565b5060051b60200190565b600082601f8301126137c257600080fd5b813560206137d76137d28361378e565b6135bc565b82815260059290921b840181019181810190868411156137f657600080fd5b8286015b848110156138355780356001600160401b038111156138195760008081fd5b6138278986838b0101613643565b8452509183019183016137fa565b509695505050505050565b6000806000806080858703121561385657600080fd5b84356001600160401b0381111561386c57600080fd5b613878878288016137b1565b945050613887602086016136a9565b92506040850135915061389c606086016136a9565b905092959194509250565b6000806000606084860312156138bc57600080fd5b6138c5846136a9565b92506138d3602085016136a9565b9150604084013590509250925092565b600080604083850312156138f657600080fd5b82359150613906602084016136a9565b90509250929050565b6000806040838503121561392257600080fd5b50508035926020909101359150565b8581526001600160a01b038516602082015260a06040820181905260009061395b9083018661370c565b828103606084015261396d818661370c565b9150508260808301529695505050505050565b600082601f83011261399157600080fd5b813560206139a16137d28361378e565b82815260059290921b840181019181810190868411156139c057600080fd5b8286015b8481101561383557803583529183019183016139c4565b600080604083850312156139ee57600080fd5b82356001600160401b0380821115613a0557600080fd5b613a1186838701613980565b93506020850135915080821115613a2757600080fd5b5061369f858286016137b1565b60008060008060808587031215613a4a57600080fd5b84356001600160401b03811115613a6057600080fd5b61387887828801613643565b600060208284031215613a7e57600080fd5b81356001600160401b03811115613a9457600080fd5b611ed984828501613643565b60008060408385031215613ab357600080fd5b613abc836136a9565b915060208301356001600160401b03811115613ad757600080fd5b61369f85828601613980565b600080600060608486031215613af857600080fd5b83356001600160401b03811115613b0e57600080fd5b840160808187031215613b2057600080fd5b9250613b2e602085016136a9565b9150613b3c604085016136a9565b90509250925092565b80151581146120c757600080fd5b60008060408385031215613b6657600080fd5b613b6f836136a9565b91506020830135613b7f81613b45565b809150509250929050565b60008060008060808587031215613ba057600080fd5b613ba9856136a9565b9350613bb7602086016136a9565b92506040850135915060608501356001600160401b03811115613bd957600080fd5b8501601f81018713613bea57600080fd5b613bf9878235602084016135ec565b91505092959194509250565b60008060408385031215613c1857600080fd5b613c21836136a9565b9150613906602084016136a9565b634e487b7160e01b600052601160045260246000fd5b6000600019821415613c5957613c59613c2f565b5060010190565b838152606060208201526000613c79606083018561370c565b8281036040840152613c8b818561370c565b9695505050505050565b600181811c90821680613ca957607f821691505b60208210811415613cca57634e487b7160e01b600052602260045260246000fd5b50919050565b6020808252601c908201527f6c656e676874204d757374206265206c657373207468616e2031353000000000604082015260600190565b634e487b7160e01b600052603260045260246000fd5b600060208284031215613d2f57600080fd5b5051919050565b60008154613d4381613c95565b60018281168015613d5b5760018114613d6c57613d9b565b60ff19841687528287019450613d9b565b8560005260208060002060005b85811015613d925781548a820152908401908201613d79565b50505082870194505b5050505092915050565b6000613dba613db48387613d36565b85613d36565b8351613dca8183602088016136e0565b0195945050505050565b60008154613de181613c95565b808552602060018381168015613dfe5760018114613e1257613e40565b60ff19851688840152604088019550613e40565b866000528260002060005b85811015613e385781548a8201860152908301908401613e1d565b890184019650505b505050505092915050565b606081526000613e5e6060830186613dd4565b6001600160a01b039490941660208301525060400152919050565b6000816000190483118215151615613e9357613e93613c2f565b500290565b600081518084526020808501945080840160005b83811015613ec857815187529582019590820190600101613eac565b509495945050505050565b604081526000613ee66040830185613e98565b6020838203818501528185548084528284019150828160051b850101876000528360002060005b83811015613f3a57868303601f19018552613f288383613dd4565b94860194925060019182019101613f0d565b50909998505050505050505050565b6020808252602e908201527f4552433732313a2063616c6c6572206973206e6f7420746f6b656e206f776e6560408201526d1c881b9bdc88185c1c1c9bdd995960921b606082015260800190565b606081526000613faa6060830186613e98565b6020838203818501528186518084528284019150828160051b85010183890160005b83811015613ffa57601f19878403018552613fe883835161370c565b94860194925090850190600101613fcc565b5050868103604088015261400e818961370c565b9a9950505050505050505050565b602081526000612b5f6020830184613dd4565b602081526000612b5f6020830184613e98565b6000808335601e1984360301811261405957600080fd5b8301803591506001600160401b0382111561407357600080fd5b6020019150368190038213156131b057600080fd5b60006020828403121561409a57600080fd5b8151612b5f81613b45565b634e487b7160e01b600052601260045260246000fd5b6000826140ca576140ca6140a5565b500490565b600083516140e18184602088016136e0565b8351908301906140f58183602088016136e0565b01949350505050565b60008282101561411057614110613c2f565b500390565b600082614124576141246140a5565b500690565b6000821982111561413c5761413c613c2f565b500190565b8183823760009101908152919050565b60208082526032908201527f4552433732313a207472616e7366657220746f206e6f6e20455243373231526560408201527131b2b4bb32b91034b6b83632b6b2b73a32b960711b606082015260800190565b7f416363657373436f6e74726f6c3a206163636f756e74200000000000000000008152600083516141db8160178501602088016136e0565b7001034b99036b4b9b9b4b733903937b6329607d1b601791840191820152835161420c8160288401602088016136e0565b01602801949350505050565b6001600160a01b0385811682528416602082015260408101839052608060608201819052600090613c8b9083018461370c565b60006020828403121561425d57600080fd5b8151612b5f81613573565b60008161427757614277613c2f565b506000190190565b634e487b7160e01b600052602160045260246000fdfed2e4c2619ea6e0faebc405d89445161c041e30fe03373ea0473da142d57d4514a264697066735822122027fe4670440b2e3e8e2fc778367dc9ebd2dab375a1c384bf8a6f088fdbc5c67964736f6c634300080c0033a2646970667358221220a961ccdb8a906b750965ae4d8bb990ab3d7c38f3f380def6b456ec53d1fe533a64736f6c634300080c0033",
	"linkReferences": {},
	"deployedLinkReferences": {}
}