{
	"_format": "hh-sol-artifact-1",
	"contractName": "GalileoMarketplace",
	"sourceName": "contracts/GalileoMarketplace.sol",
	"abi": [
		{
			"anonymous": false,
			"inputs": [
				{
					"indexed": false,
					"internalType": "uint256",
					"name": "itemId",
					"type": "uint256"
				},
				{
					"indexed": true,
					"internalType": "uint256",
					"name": "tokenId",
					"type": "uint256"
				},
				{
					"indexed": false,
					"internalType": "address",
					"name": "tokenAddress",
					"type": "address"
				},
				{
					"indexed": false,
					"internalType": "uint256",
					"name": "price",
					"type": "uint256"
				},
				{
					"indexed": true,
					"internalType": "address",
					"name": "from",
					"type": "address"
				},
				{
					"indexed": true,
					"internalType": "address",
					"name": "to",
					"type": "address"
				}
			],
			"name": "Bought",
			"type": "event"
		},
		{
			"anonymous": false,
			"inputs": [
				{
					"indexed": true,
					"internalType": "address",
					"name": "_to",
					"type": "address"
				},
				{
					"indexed": true,
					"internalType": "uint256",
					"name": "_tokenId",
					"type": "uint256"
				},
				{
					"indexed": true,
					"internalType": "address",
					"name": "tokenAddress",
					"type": "address"
				}
			],
			"name": "DeList",
			"type": "event"
		},
		{
			"anonymous": false,
			"inputs": [
				{
					"indexed": false,
					"internalType": "uint8",
					"name": "version",
					"type": "uint8"
				}
			],
			"name": "Initialized",
			"type": "event"
		},
		{
			"anonymous": false,
			"inputs": [
				{
					"indexed": false,
					"internalType": "uint256",
					"name": "itemId",
					"type": "uint256"
				},
				{
					"indexed": false,
					"internalType": "uint256[]",
					"name": "tokenId",
					"type": "uint256[]"
				},
				{
					"indexed": true,
					"internalType": "address",
					"name": "tokenAddress",
					"type": "address"
				},
				{
					"indexed": false,
					"internalType": "uint256",
					"name": "price",
					"type": "uint256"
				},
				{
					"indexed": true,
					"internalType": "address",
					"name": "to",
					"type": "address"
				},
				{
					"indexed": false,
					"internalType": "address",
					"name": "from",
					"type": "address"
				}
			],
			"name": "OfferedMultiple",
			"type": "event"
		},
		{
			"anonymous": false,
			"inputs": [
				{
					"indexed": false,
					"internalType": "uint256",
					"name": "itemId",
					"type": "uint256"
				},
				{
					"indexed": true,
					"internalType": "uint256",
					"name": "tokenId",
					"type": "uint256"
				},
				{
					"indexed": true,
					"internalType": "address",
					"name": "tokenAddress",
					"type": "address"
				},
				{
					"indexed": false,
					"internalType": "uint256",
					"name": "price",
					"type": "uint256"
				},
				{
					"indexed": true,
					"internalType": "address",
					"name": "to",
					"type": "address"
				},
				{
					"indexed": false,
					"internalType": "address",
					"name": "from",
					"type": "address"
				}
			],
			"name": "OfferedSingle",
			"type": "event"
		},
		{
			"anonymous": false,
			"inputs": [
				{
					"indexed": false,
					"internalType": "uint256",
					"name": "itemId",
					"type": "uint256"
				},
				{
					"indexed": true,
					"internalType": "uint256",
					"name": "tokenId",
					"type": "uint256"
				},
				{
					"indexed": false,
					"internalType": "address",
					"name": "tokenAddress",
					"type": "address"
				},
				{
					"indexed": false,
					"internalType": "uint256",
					"name": "price",
					"type": "uint256"
				},
				{
					"indexed": true,
					"internalType": "address",
					"name": "from",
					"type": "address"
				},
				{
					"indexed": true,
					"internalType": "address",
					"name": "to",
					"type": "address"
				}
			],
			"name": "Resell",
			"type": "event"
		},
		{
			"anonymous": false,
			"inputs": [
				{
					"indexed": true,
					"internalType": "bytes32",
					"name": "role",
					"type": "bytes32"
				},
				{
					"indexed": true,
					"internalType": "bytes32",
					"name": "previousAdminRole",
					"type": "bytes32"
				},
				{
					"indexed": true,
					"internalType": "bytes32",
					"name": "newAdminRole",
					"type": "bytes32"
				}
			],
			"name": "RoleAdminChanged",
			"type": "event"
		},
		{
			"anonymous": false,
			"inputs": [
				{
					"indexed": true,
					"internalType": "bytes32",
					"name": "role",
					"type": "bytes32"
				},
				{
					"indexed": true,
					"internalType": "address",
					"name": "account",
					"type": "address"
				},
				{
					"indexed": true,
					"internalType": "address",
					"name": "sender",
					"type": "address"
				}
			],
			"name": "RoleGranted",
			"type": "event"
		},
		{
			"anonymous": false,
			"inputs": [
				{
					"indexed": true,
					"internalType": "bytes32",
					"name": "role",
					"type": "bytes32"
				},
				{
					"indexed": true,
					"internalType": "address",
					"name": "account",
					"type": "address"
				},
				{
					"indexed": true,
					"internalType": "address",
					"name": "sender",
					"type": "address"
				}
			],
			"name": "RoleRevoked",
			"type": "event"
		},
		{
			"inputs": [],
			"name": "DEFAULT_ADMIN_ROLE",
			"outputs": [
				{
					"internalType": "bytes32",
					"name": "",
					"type": "bytes32"
				}
			],
			"stateMutability": "view",
			"type": "function"
		},
		{
			"inputs": [],
			"name": "SUB_ADMIN_ROLE",
			"outputs": [
				{
					"internalType": "bytes32",
					"name": "",
					"type": "bytes32"
				}
			],
			"stateMutability": "view",
			"type": "function"
		},
		{
			"inputs": [],
			"name": "activeItem",
			"outputs": [
				{
					"internalType": "uint256",
					"name": "",
					"type": "uint256"
				}
			],
			"stateMutability": "view",
			"type": "function"
		},
		{
			"inputs": [
				{
					"internalType": "uint256",
					"name": "itemId",
					"type": "uint256"
				},
				{
					"internalType": "address",
					"name": "tokenAddress",
					"type": "address"
				},
				{
					"internalType": "uint256",
					"name": "amount",
					"type": "uint256"
				}
			],
			"name": "changePrice",
			"outputs": [],
			"stateMutability": "payable",
			"type": "function"
		},
		{
			"inputs": [
				{
					"internalType": "uint256",
					"name": "_tokenId",
					"type": "uint256"
				},
				{
					"internalType": "address",
					"name": "_tokenAddress",
					"type": "address"
				}
			],
			"name": "deListNft",
			"outputs": [],
			"stateMutability": "nonpayable",
			"type": "function"
		},
		{
			"inputs": [],
			"name": "feeAccount",
			"outputs": [
				{
					"internalType": "address payable",
					"name": "",
					"type": "address"
				}
			],
			"stateMutability": "view",
			"type": "function"
		},
		{
			"inputs": [],
			"name": "feePercent",
			"outputs": [
				{
					"internalType": "uint256",
					"name": "",
					"type": "uint256"
				}
			],
			"stateMutability": "view",
			"type": "function"
		},
		{
			"inputs": [],
			"name": "getAddress",
			"outputs": [
				{
					"internalType": "address",
					"name": "",
					"type": "address"
				}
			],
			"stateMutability": "view",
			"type": "function"
		},
		{
			"inputs": [],
			"name": "getFee",
			"outputs": [
				{
					"internalType": "uint256",
					"name": "",
					"type": "uint256"
				}
			],
			"stateMutability": "view",
			"type": "function"
		},
		{
			"inputs": [
				{
					"internalType": "bytes32",
					"name": "role",
					"type": "bytes32"
				}
			],
			"name": "getRoleAdmin",
			"outputs": [
				{
					"internalType": "bytes32",
					"name": "",
					"type": "bytes32"
				}
			],
			"stateMutability": "view",
			"type": "function"
		},
		{
			"inputs": [
				{
					"internalType": "bytes32",
					"name": "role",
					"type": "bytes32"
				},
				{
					"internalType": "address",
					"name": "account",
					"type": "address"
				}
			],
			"name": "grantRole",
			"outputs": [],
			"stateMutability": "nonpayable",
			"type": "function"
		},
		{
			"inputs": [
				{
					"internalType": "bytes32",
					"name": "role",
					"type": "bytes32"
				},
				{
					"internalType": "address",
					"name": "account",
					"type": "address"
				}
			],
			"name": "hasRole",
			"outputs": [
				{
					"internalType": "bool",
					"name": "",
					"type": "bool"
				}
			],
			"stateMutability": "view",
			"type": "function"
		},
		{
			"inputs": [
				{
					"internalType": "uint256",
					"name": "fee",
					"type": "uint256"
				},
				{
					"internalType": "address payable",
					"name": "owner",
					"type": "address"
				}
			],
			"name": "initialize",
			"outputs": [],
			"stateMutability": "nonpayable",
			"type": "function"
		},
		{
			"inputs": [
				{
					"internalType": "uint256",
					"name": "",
					"type": "uint256"
				},
				{
					"internalType": "address",
					"name": "",
					"type": "address"
				}
			],
			"name": "items",
			"outputs": [
				{
					"internalType": "uint256",
					"name": "tokenId",
					"type": "uint256"
				},
				{
					"internalType": "contract IERC20",
					"name": "token",
					"type": "address"
				},
				{
					"internalType": "uint256",
					"name": "price",
					"type": "uint256"
				},
				{
					"internalType": "address",
					"name": "tokenAddress",
					"type": "address"
				},
				{
					"internalType": "address payable",
					"name": "owner",
					"type": "address"
				},
				{
					"internalType": "bool",
					"name": "isSold",
					"type": "bool"
				}
			],
			"stateMutability": "view",
			"type": "function"
		},
		{
			"inputs": [
				{
					"internalType": "contract IERC20",
					"name": "token",
					"type": "address"
				},
				{
					"internalType": "uint256",
					"name": "tokenId",
					"type": "uint256"
				},
				{
					"internalType": "address",
					"name": "tokenAddress",
					"type": "address"
				},
				{
					"internalType": "uint256",
					"name": "price",
					"type": "uint256"
				}
			],
			"name": "makeItem",
			"outputs": [],
			"stateMutability": "nonpayable",
			"type": "function"
		},
		{
			"inputs": [
				{
					"internalType": "contract IERC20",
					"name": "token",
					"type": "address"
				},
				{
					"internalType": "uint256[]",
					"name": "tokenId",
					"type": "uint256[]"
				},
				{
					"internalType": "address",
					"name": "tokenAddress",
					"type": "address"
				},
				{
					"internalType": "uint256",
					"name": "price",
					"type": "uint256"
				}
			],
			"name": "makeItemBulk",
			"outputs": [],
			"stateMutability": "nonpayable",
			"type": "function"
		},
		{
			"inputs": [
				{
					"internalType": "uint256",
					"name": "itemId",
					"type": "uint256"
				},
				{
					"internalType": "address",
					"name": "tokenAddress",
					"type": "address"
				},
				{
					"internalType": "uint256",
					"name": "amount",
					"type": "uint256"
				}
			],
			"name": "purchaseItem",
			"outputs": [],
			"stateMutability": "payable",
			"type": "function"
		},
		{
			"inputs": [
				{
					"internalType": "contract IERC20",
					"name": "token",
					"type": "address"
				},
				{
					"internalType": "uint256",
					"name": "tokenId",
					"type": "uint256"
				},
				{
					"internalType": "address",
					"name": "tokenAddress",
					"type": "address"
				},
				{
					"internalType": "uint256",
					"name": "price",
					"type": "uint256"
				}
			],
			"name": "redeem",
			"outputs": [],
			"stateMutability": "nonpayable",
			"type": "function"
		},
		{
			"inputs": [
				{
					"internalType": "bytes32",
					"name": "role",
					"type": "bytes32"
				},
				{
					"internalType": "address",
					"name": "account",
					"type": "address"
				}
			],
			"name": "renounceRole",
			"outputs": [],
			"stateMutability": "nonpayable",
			"type": "function"
		},
		{
			"inputs": [
				{
					"internalType": "uint256",
					"name": "itemId",
					"type": "uint256"
				},
				{
					"internalType": "address",
					"name": "tokenAddress",
					"type": "address"
				},
				{
					"internalType": "uint256",
					"name": "amount",
					"type": "uint256"
				}
			],
			"name": "resellItem",
			"outputs": [],
			"stateMutability": "payable",
			"type": "function"
		},
		{
			"inputs": [
				{
					"internalType": "bytes32",
					"name": "role",
					"type": "bytes32"
				},
				{
					"internalType": "address",
					"name": "account",
					"type": "address"
				}
			],
			"name": "revokeRole",
			"outputs": [],
			"stateMutability": "nonpayable",
			"type": "function"
		},
		{
			"inputs": [
				{
					"internalType": "address payable",
					"name": "admin",
					"type": "address"
				}
			],
			"name": "setAddress",
			"outputs": [],
			"stateMutability": "nonpayable",
			"type": "function"
		},
		{
			"inputs": [
				{
					"internalType": "uint256",
					"name": "fees",
					"type": "uint256"
				}
			],
			"name": "setFee",
			"outputs": [],
			"stateMutability": "nonpayable",
			"type": "function"
		},
		{
			"inputs": [
				{
					"internalType": "bytes4",
					"name": "interfaceId",
					"type": "bytes4"
				}
			],
			"name": "supportsInterface",
			"outputs": [
				{
					"internalType": "bool",
					"name": "",
					"type": "bool"
				}
			],
			"stateMutability": "view",
			"type": "function"
		}
	],
	"bytecode": "0x608060405234801561001057600080fd5b50611d79806100206000396000f3fe60806040526004361061014b5760003560e01c80637d809671116100b6578063ced72f871161006f578063ced72f871461042c578063cfa9053214610441578063d547741f14610454578063da35a26f14610474578063e30081a014610494578063f3f094a1146104b457600080fd5b80637d8096711461038e5780637fd6f15c146103ae578063823c5fcb146103c457806391d14854146103d7578063a0b4fe94146103f7578063a217fddf1461041757600080fd5b806338cc48311161010857806338cc48311461023d57806354ffe77e1461026f578063609ed3bd1461031b57806365e17c9d1461033b57806369fe0e2d1461035b57806372de48ae1461037b57600080fd5b806301ffc9a714610150578063022f235414610185578063248a9ca3146101b55780632f2ff15d146101e557806336568abe1461020757806337ad8e1a14610227575b600080fd5b34801561015c57600080fd5b5061017061016b366004611813565b6104d4565b60405190151581526020015b60405180910390f35b34801561019157600080fd5b506101a7600080516020611d2483398151915281565b60405190815260200161017c565b3480156101c157600080fd5b506101a76101d036600461183d565b60009081526097602052604090206001015490565b3480156101f157600080fd5b5061020561020036600461187b565b61050b565b005b34801561021357600080fd5b5061020561022236600461187b565b610535565b34801561023357600080fd5b506101a760c95481565b34801561024957600080fd5b5060ca546001600160a01b03165b6040516001600160a01b03909116815260200161017c565b34801561027b57600080fd5b506102df61028a36600461187b565b60cc6020908152600092835260408084209091529082529020805460018201546002830154600384015460049094015492936001600160a01b039283169391929081169190811690600160a01b900460ff1686565b604080519687526001600160a01b03958616602088015286019390935290831660608501529091166080830152151560a082015260c00161017c565b34801561032757600080fd5b506102056103363660046118c1565b6105b8565b34801561034757600080fd5b5060ca54610257906001600160a01b031681565b34801561036757600080fd5b5061020561037636600461183d565b610823565b6102056103893660046119ac565b610841565b34801561039a57600080fd5b506102056103a936600461187b565b610acc565b3480156103ba57600080fd5b506101a760cb5481565b6102056103d23660046119ac565b610bfc565b3480156103e357600080fd5b506101706103f236600461187b565b610f3e565b34801561040357600080fd5b506102056104123660046119e4565b610f69565b34801561042357600080fd5b506101a7600081565b34801561043857600080fd5b5060cb546101a7565b61020561044f3660046119ac565b61112c565b34801561046057600080fd5b5061020561046f36600461187b565b6111c7565b34801561048057600080fd5b5061020561048f36600461187b565b6111ec565b3480156104a057600080fd5b506102056104af366004611a1c565b611339565b3480156104c057600080fd5b506102056104cf3660046119e4565b611374565b60006001600160e01b03198216637965db0b60e01b148061050557506301ffc9a760e01b6001600160e01b03198316145b92915050565b60008281526097602052604090206001015461052681611508565b6105308383611515565b505050565b6001600160a01b03811633146105aa5760405162461bcd60e51b815260206004820152602f60248201527f416363657373436f6e74726f6c3a2063616e206f6e6c792072656e6f756e636560448201526e103937b632b9903337b91039b2b63360891b60648201526084015b60405180910390fd5b6105b4828261159b565b5050565b600260015414156105db5760405162461bcd60e51b81526004016105a190611a39565b6002600155806105fd5760405162461bcd60e51b81526004016105a190611a70565b60c95460005b84518110156107c757836001600160a01b03166323b872dd333088858151811061062f5761062f611ab1565b60200260200101516040518463ffffffff1660e01b815260040161065593929190611ac7565b600060405180830381600087803b15801561066f57600080fd5b505af1158015610683573d6000803e3d6000fd5b50505050818061069290611b01565b9250506040518060c001604052808683815181106106b2576106b2611ab1565b60200260200101518152602001876001600160a01b03168152602001848152602001856001600160a01b03168152602001336001600160a01b031681526020016000151581525060cc600087848151811061070f5761070f611ab1565b602090810291909101810151825281810192909252604090810160009081206001600160a01b03808a1683529084529082902084518155928401516001840180549183166001600160a01b03199283161790559184015160028401556060840151600384018054918316919093161790915560808301516004909201805460a0909401511515600160a01b026001600160a81b03199094169290911691909117919091179055806107bf81611b01565b915050610603565b5060c981905560405130906001600160a01b038516907fd086203ce869f2497bd88f8255200ea8ed47cccd4bd896205cdf0dabef0674ec90610810908590899088903390611b1c565b60405180910390a3505060018055505050565b600080516020611d2483398151915261083b81611508565b5060cb55565b600260015414156108645760405162461bcd60e51b81526004016105a190611a39565b60026001818155600085815260cc602090815260408083206001600160a01b03888116808652828552838620845160c081018652815481529781015483168887015297880154938701939093526003870154811660608701526004909601549586166080860152600160a01b90950460ff1680151560a0860152925292909252906109285760405162461bcd60e51b8152602060048201526014602482015273125d195b48125cc8139bdd0814dbdb190816595d60621b60448201526064016105a1565b600082116109785760405162461bcd60e51b815260206004820152601f60248201527f5072696365204d7573742042652047726561746572205468616e205a65726f0060448201526064016105a1565b600084815260cc602090815260408083206001600160a01b0387811685529252909120600401541633146109be5760405162461bcd60e51b81526004016105a190611b82565b80516040516323b872dd60e01b81526001600160a01b038516916323b872dd916109ef913391309190600401611ac7565b600060405180830381600087803b158015610a0957600080fd5b505af1158015610a1d573d6000803e3d6000fd5b505060c98054925090506000610a3283611b01565b9091555050600084815260cc602090815260408083206001600160a01b038781168086529184529382902060048101805460ff60a01b19169055600201869055608085015185518684015184518b81529586019390935292840191909152339316917f88540bba37eee96f09d5b2db292b3ffa7b7f99e42e80235fe1a55ebe1c570cfe906060015b60405180910390a45050600180555050565b60026001541415610aef5760405162461bcd60e51b81526004016105a190611a39565b6002600155600082815260cc602090815260408083206001600160a01b038581168552925290912060040154163314610b3a5760405162461bcd60e51b81526004016105a190611b82565b600082815260cc602090815260408083206001600160a01b03808616808652919093529281902060049081015491516323b872dd60e01b81526323b872dd93610b8a933093911691889101611ac7565b600060405180830381600087803b158015610ba457600080fd5b505af1158015610bb8573d6000803e3d6000fd5b50506040516001600160a01b038416925084915033907f43d28a5cba7f615c678abc6d80fcefd540bcb624c33f03fa9fd0c3b04f756a6a90600090a4505060018055565b60026001541415610c1f5760405162461bcd60e51b81526004016105a190611a39565b60026001818155600085815260cc602090815260408083206001600160a01b03888116808652828552838620845160c0810186528154815297810154831688870152978801549387018490526003880154821660608801526004909701549081166080870152600160a01b900460ff1615801560a0870152959093529190529091610ce15760405162461bcd60e51b8152602060048201526012602482015271024ba32b69020b63932b0b23c9029b7b632160751b60448201526064016105a1565b80831015610d015760405162461bcd60e51b81526004016105a190611a70565b6000606460cb5485610d139190611bb9565b610d1d9190611bd8565b602084015160ca546040516323b872dd60e01b81529293506001600160a01b03918216926323b872dd92610d5a9233929116908690600401611ac7565b6020604051808303816000875af1158015610d79573d6000803e3d6000fd5b505050506040513d601f19601f82011682018060405250810190610d9d9190611bfa565b5082602001516001600160a01b03166323b872dd338560800151876040518463ffffffff1660e01b8152600401610dd693929190611ac7565b6020604051808303816000875af1158015610df5573d6000803e3d6000fd5b505050506040513d601f19601f82011682018060405250810190610e199190611bfa565b5082516040516323b872dd60e01b81526001600160a01b038716916323b872dd91610e4b913091339190600401611ac7565b600060405180830381600087803b158015610e6557600080fd5b505af1158015610e79573d6000803e3d6000fd5b505050600087815260cc602090815260408083206001600160a01b038a16845290915281206004018054600160a01b6001600160a81b03199091163360ff60a01b19161717905560c98054925090610ed083611c1c565b90915550506080830151835160408086015181518a81526001600160a01b038a8116602083015292810191909152339390911691907f8499da5cbed7f4c76667f49e6eb9fbbec401e155d096505159678f2c21e6223f9060600160405180910390a450506001805550505050565b60009182526097602090815260408084206001600160a01b0393909316845291905290205460ff1690565b60026001541415610f8c5760405162461bcd60e51b81526004016105a190611a39565b600260015580610fae5760405162461bcd60e51b81526004016105a190611a70565b6040516323b872dd60e01b81526001600160a01b038316906323b872dd90610fde90339030908890600401611ac7565b600060405180830381600087803b158015610ff857600080fd5b505af115801561100c573d6000803e3d6000fd5b50506040805160c0810182528681526001600160a01b038089166020808401918252838501888152898416606086018181523360808801908152600060a089018181528f825260cc87528a8220948252939095529784209651875593516001870180549187166001600160a01b03199283161790559151600287015592516003860180549186169190921617905593516004909301805491511515600160a01b026001600160a81b0319909216939092169290921791909117905560c98054935091506110d883611b01565b909155505060c9546040805191825260208201839052339082015230906001600160a01b0384169085907fbed0132932bdadd534755009eced852154d17882fc92513bcc4956182326e84790606001610aba565b6002600154141561114f5760405162461bcd60e51b81526004016105a190611a39565b6002600155600083815260cc602090815260408083206001600160a01b03868116855292529091206004015416331461119a5760405162461bcd60e51b81526004016105a190611b82565b600092835260cc602090815260408085206001600160a01b03909416855292905291206002015560018055565b6000828152609760205260409020600101546111e281611508565b610530838361159b565b600054610100900460ff161580801561120c5750600054600160ff909116105b806112265750303b158015611226575060005460ff166001145b6112895760405162461bcd60e51b815260206004820152602e60248201527f496e697469616c697a61626c653a20636f6e747261637420697320616c72656160448201526d191e481a5b9a5d1a585b1a5e995960921b60648201526084016105a1565b6000805460ff1916600117905580156112ac576000805461ff0019166101001790555b6112b7600033611602565b6112cf600080516020611d2483398151915233611602565b60ca80546001600160a01b0319166001600160a01b03841617905560cb8390558015610530576000805461ff0019169055604051600181527f7f26b83ff96e1f2b6a682f133852f6798a09c465da95921460cefb38474024989060200160405180910390a1505050565b600080516020611d2483398151915261135181611508565b5060ca80546001600160a01b0319166001600160a01b0392909216919091179055565b600260015414156113975760405162461bcd60e51b81526004016105a190611a39565b6002600155806113e95760405162461bcd60e51b815260206004820152601f60248201527f5072696365204d7573742042652047726561746572205468616e205a65726f0060448201526064016105a1565b60c980549060006113f983611b01565b90915550506040805160c0810182528481526001600160a01b038087166020808401918252838501868152878416606086018181523360808801818152600160a08a0181815260008f815260cc89528c8120878252909852968b902099518a55965196890180549789166001600160a01b0319988916179055935160028901559051600388018054918816919096161790945590516004909501805492511515600160a01b026001600160a81b031990931695909416949094171790915560c9549251309387927fbed0132932bdadd534755009eced852154d17882fc92513bcc4956182326e84792610aba9291889192835260208301919091526001600160a01b0316604082015260600190565b611512813361160c565b50565b61151f8282610f3e565b6105b45760008281526097602090815260408083206001600160a01b03851684529091529020805460ff191660011790556115573390565b6001600160a01b0316816001600160a01b0316837f2f8788117e7eff1d82e926ec794901d17c78024a50270940304540a733656f0d60405160405180910390a45050565b6115a58282610f3e565b156105b45760008281526097602090815260408083206001600160a01b0385168085529252808320805460ff1916905551339285917ff6391f5c32d9c69d2a47ea670b442974b53935d1edc7fd64eb21e047a839171b9190a45050565b6105b48282611515565b6116168282610f3e565b6105b45761162e816001600160a01b03166014611670565b611639836020611670565b60405160200161164a929190611c63565b60408051601f198184030181529082905262461bcd60e51b82526105a191600401611cd8565b6060600061167f836002611bb9565b61168a906002611d0b565b67ffffffffffffffff8111156116a2576116a26118ab565b6040519080825280601f01601f1916602001820160405280156116cc576020820181803683370190505b509050600360fc1b816000815181106116e7576116e7611ab1565b60200101906001600160f81b031916908160001a905350600f60fb1b8160018151811061171657611716611ab1565b60200101906001600160f81b031916908160001a905350600061173a846002611bb9565b611745906001611d0b565b90505b60018111156117bd576f181899199a1a9b1b9c1cb0b131b232b360811b85600f166010811061177957611779611ab1565b1a60f81b82828151811061178f5761178f611ab1565b60200101906001600160f81b031916908160001a90535060049490941c936117b681611c1c565b9050611748565b50831561180c5760405162461bcd60e51b815260206004820181905260248201527f537472696e67733a20686578206c656e67746820696e73756666696369656e7460448201526064016105a1565b9392505050565b60006020828403121561182557600080fd5b81356001600160e01b03198116811461180c57600080fd5b60006020828403121561184f57600080fd5b5035919050565b6001600160a01b038116811461151257600080fd5b803561187681611856565b919050565b6000806040838503121561188e57600080fd5b8235915060208301356118a081611856565b809150509250929050565b634e487b7160e01b600052604160045260246000fd5b600080600080608085870312156118d757600080fd5b84356118e281611856565b935060208581013567ffffffffffffffff8082111561190057600080fd5b818801915088601f83011261191457600080fd5b813581811115611926576119266118ab565b8060051b604051601f19603f8301168101818110858211171561194b5761194b6118ab565b60405291825284820192508381018501918b83111561196957600080fd5b938501935b828510156119875784358452938501939285019261196e565b80985050505050505061199c6040860161186b565b9396929550929360600135925050565b6000806000606084860312156119c157600080fd5b8335925060208401356119d381611856565b929592945050506040919091013590565b600080600080608085870312156119fa57600080fd5b8435611a0581611856565b935060208501359250604085013561199c81611856565b600060208284031215611a2e57600080fd5b813561180c81611856565b6020808252601f908201527f5265656e7472616e637947756172643a207265656e7472616e742063616c6c00604082015260600190565b60208082526021908201527f5072696365204d7573742042652047726561746572205468616e20416d6f756e6040820152601d60fa1b606082015260800190565b634e487b7160e01b600052603260045260246000fd5b6001600160a01b039384168152919092166020820152604081019190915260600190565b634e487b7160e01b600052601160045260246000fd5b6000600019821415611b1557611b15611aeb565b5060010190565b600060808201868352602060808185015281875180845260a086019150828901935060005b81811015611b5d57845183529383019391830191600101611b41565b505060408501969096525050506001600160a01b039190911660609091015292915050565b6020808252601a908201527f43616c6c6572204953206e4f7420546865204f776e6572202020000000000000604082015260600190565b6000816000190483118215151615611bd357611bd3611aeb565b500290565b600082611bf557634e487b7160e01b600052601260045260246000fd5b500490565b600060208284031215611c0c57600080fd5b8151801515811461180c57600080fd5b600081611c2b57611c2b611aeb565b506000190190565b60005b83811015611c4e578181015183820152602001611c36565b83811115611c5d576000848401525b50505050565b7f416363657373436f6e74726f6c3a206163636f756e7420000000000000000000815260008351611c9b816017850160208801611c33565b7001034b99036b4b9b9b4b733903937b6329607d1b6017918401918201528351611ccc816028840160208801611c33565b01602801949350505050565b6020815260008251806020840152611cf7816040850160208701611c33565b601f01601f19169190910160400192915050565b60008219821115611d1e57611d1e611aeb565b50019056fed2e4c2619ea6e0faebc405d89445161c041e30fe03373ea0473da142d57d4514a264697066735822122036237ad96ad98ce614362b1626dbd9b27244f57956c9d59a29fa487867d47a3664736f6c634300080c0033",
	"linkReferences": {},
	"deployedLinkReferences": {}
}