{
  "_format": "hh-sol-artifact-1",
  "contractName": "GalileoProtocol",
  "sourceName": "contracts/GalileoProtocol.sol",
  "abi": [
    {
      "inputs": [
        {
          "internalType": "string",
          "name": "name",
          "type": "string"
        },
        {
          "internalType": "string",
          "name": "symbol",
          "type": "string"
        },
        {
          "internalType": "address",
          "name": "admin",
          "type": "address"
        },
        {
          "internalType": "address",
          "name": "subAdmin",
          "type": "address"
        },
        {
          "internalType": "uint256",
          "name": "fees",
          "type": "uint256"
        },
        {
          "internalType": "address",
          "name": "marketPlaces",
          "type": "address"
        },
        {
          "internalType": "address",
          "name": "factory",
          "type": "address"
        },
        {
          "internalType": "address",
          "name": "owner",
          "type": "address"
        },
        {
          "internalType": "string",
          "name": "initial",
          "type": "string"
        }
      ],
      "stateMutability": "nonpayable",
      "type": "constructor"
    },
    {
      "anonymous": false,
      "inputs": [
        {
          "indexed": true,
          "internalType": "address",
          "name": "owner",
          "type": "address"
        },
        {
          "indexed": true,
          "internalType": "address",
          "name": "approved",
          "type": "address"
        },
        {
          "indexed": true,
          "internalType": "uint256",
          "name": "tokenId",
          "type": "uint256"
        }
      ],
      "name": "Approval",
      "type": "event"
    },
    {
      "anonymous": false,
      "inputs": [
        {
          "indexed": true,
          "internalType": "address",
          "name": "owner",
          "type": "address"
        },
        {
          "indexed": true,
          "internalType": "address",
          "name": "operator",
          "type": "address"
        },
        {
          "indexed": false,
          "internalType": "bool",
          "name": "approved",
          "type": "bool"
        }
      ],
      "name": "ApprovalForAll",
      "type": "event"
    },
    {
      "anonymous": false,
      "inputs": [
        {
          "indexed": true,
          "internalType": "address",
          "name": "admin",
          "type": "address"
        },
        {
          "indexed": true,
          "internalType": "uint256",
          "name": "amount",
          "type": "uint256"
        },
        {
          "indexed": true,
          "internalType": "uint256",
          "name": "cal",
          "type": "uint256"
        },
        {
          "indexed": false,
          "internalType": "uint256",
          "name": "count",
          "type": "uint256"
        }
      ],
      "name": "HandleCalculation",
      "type": "event"
    },
    {
      "anonymous": false,
      "inputs": [
        {
          "indexed": true,
          "internalType": "address",
          "name": "signer",
          "type": "address"
        },
        {
          "indexed": true,
          "internalType": "address",
          "name": "minter",
          "type": "address"
        },
        {
          "indexed": false,
          "internalType": "uint256",
          "name": "price",
          "type": "uint256"
        },
        {
          "indexed": true,
          "internalType": "uint256",
          "name": "tokenId",
          "type": "uint256"
        },
        {
          "indexed": false,
          "internalType": "address",
          "name": "seller",
          "type": "address"
        }
      ],
      "name": "HandleLazyMint",
      "type": "event"
    },
    {
      "anonymous": false,
      "inputs": [
        {
          "indexed": true,
          "internalType": "address",
          "name": "minter",
          "type": "address"
        },
        {
          "indexed": true,
          "internalType": "uint256",
          "name": "tokenId",
          "type": "uint256"
        },
        {
          "indexed": false,
          "internalType": "string",
          "name": "serial",
          "type": "string"
        },
        {
          "indexed": true,
          "internalType": "address",
          "name": "seller",
          "type": "address"
        }
      ],
      "name": "HandleMint",
      "type": "event"
    },
    {
      "anonymous": false,
      "inputs": [
        {
          "indexed": true,
          "internalType": "address",
          "name": "minter",
          "type": "address"
        },
        {
          "indexed": false,
          "internalType": "uint256[]",
          "name": "tokenId",
          "type": "uint256[]"
        },
        {
          "indexed": false,
          "internalType": "string[]",
          "name": "serial",
          "type": "string[]"
        },
        {
          "indexed": true,
          "internalType": "address",
          "name": "seller",
          "type": "address"
        }
      ],
      "name": "HandleMintBulk",
      "type": "event"
    },
    {
      "anonymous": false,
      "inputs": [
        {
          "indexed": false,
          "internalType": "uint256",
          "name": "tokenId",
          "type": "uint256"
        },
        {
          "indexed": false,
          "internalType": "string",
          "name": "newTokenURI",
          "type": "string"
        },
        {
          "indexed": true,
          "internalType": "address",
          "name": "updator",
          "type": "address"
        },
        {
          "indexed": false,
          "internalType": "string",
          "name": "oldTokenURI",
          "type": "string"
        },
        {
          "indexed": true,
          "internalType": "uint256",
          "name": "count",
          "type": "uint256"
        }
      ],
      "name": "HandleUpdateUri",
      "type": "event"
    },
    {
      "anonymous": false,
      "inputs": [
        {
          "indexed": false,
          "internalType": "uint256[]",
          "name": "tokenId",
          "type": "uint256[]"
        },
        {
          "indexed": false,
          "internalType": "string[]",
          "name": "newTokenURI",
          "type": "string[]"
        },
        {
          "indexed": true,
          "internalType": "address",
          "name": "updator",
          "type": "address"
        },
        {
          "indexed": false,
          "internalType": "string",
          "name": "oldTokenURI",
          "type": "string"
        },
        {
          "indexed": true,
          "internalType": "uint256",
          "name": "count",
          "type": "uint256"
        }
      ],
      "name": "HandleUpdatedBulkUri",
      "type": "event"
    },
    {
      "anonymous": false,
      "inputs": [
        {
          "indexed": true,
          "internalType": "uint256",
          "name": "amount",
          "type": "uint256"
        }
      ],
      "name": "HanldeSetfee",
      "type": "event"
    },
    {
      "anonymous": false,
      "inputs": [
        {
          "indexed": true,
          "internalType": "address",
          "name": "previousOwner",
          "type": "address"
        },
        {
          "indexed": true,
          "internalType": "address",
          "name": "newOwner",
          "type": "address"
        }
      ],
      "name": "OwnershipTransferred",
      "type": "event"
    },
    {
      "anonymous": false,
      "inputs": [
        {
          "indexed": true,
          "internalType": "bytes32",
          "name": "role",
          "type": "bytes32"
        },
        {
          "indexed": true,
          "internalType": "bytes32",
          "name": "previousAdminRole",
          "type": "bytes32"
        },
        {
          "indexed": true,
          "internalType": "bytes32",
          "name": "newAdminRole",
          "type": "bytes32"
        }
      ],
      "name": "RoleAdminChanged",
      "type": "event"
    },
    {
      "anonymous": false,
      "inputs": [
        {
          "indexed": true,
          "internalType": "bytes32",
          "name": "role",
          "type": "bytes32"
        },
        {
          "indexed": true,
          "internalType": "address",
          "name": "account",
          "type": "address"
        },
        {
          "indexed": true,
          "internalType": "address",
          "name": "sender",
          "type": "address"
        }
      ],
      "name": "RoleGranted",
      "type": "event"
    },
    {
      "anonymous": false,
      "inputs": [
        {
          "indexed": true,
          "internalType": "bytes32",
          "name": "role",
          "type": "bytes32"
        },
        {
          "indexed": true,
          "internalType": "address",
          "name": "account",
          "type": "address"
        },
        {
          "indexed": true,
          "internalType": "address",
          "name": "sender",
          "type": "address"
        }
      ],
      "name": "RoleRevoked",
      "type": "event"
    },
    {
      "anonymous": false,
      "inputs": [
        {
          "indexed": true,
          "internalType": "address",
          "name": "from",
          "type": "address"
        },
        {
          "indexed": true,
          "internalType": "address",
          "name": "to",
          "type": "address"
        },
        {
          "indexed": true,
          "internalType": "uint256",
          "name": "tokenId",
          "type": "uint256"
        }
      ],
      "name": "Transfer",
      "type": "event"
    },
    {
      "anonymous": false,
      "inputs": [
        {
          "indexed": true,
          "internalType": "address",
          "name": "from",
          "type": "address"
        },
        {
          "indexed": true,
          "internalType": "address",
          "name": "to",
          "type": "address"
        },
        {
          "indexed": false,
          "internalType": "uint256[]",
          "name": "tokenIDs",
          "type": "uint256[]"
        }
      ],
      "name": "TransferMultipleNft",
      "type": "event"
    },
    {
      "inputs": [],
      "name": "DEFAULT_ADMIN_ROLE",
      "outputs": [
        {
          "internalType": "bytes32",
          "name": "",
          "type": "bytes32"
        }
      ],
      "stateMutability": "view",
      "type": "function"
    },
    {
      "inputs": [],
      "name": "SUB_ADMIN_ROLE",
      "outputs": [
        {
          "internalType": "bytes32",
          "name": "",
          "type": "bytes32"
        }
      ],
      "stateMutability": "view",
      "type": "function"
    },
    {
      "inputs": [
        {
          "internalType": "address",
          "name": "to",
          "type": "address"
        },
        {
          "internalType": "uint256",
          "name": "tokenId",
          "type": "uint256"
        }
      ],
      "name": "approve",
      "outputs": [],
      "stateMutability": "nonpayable",
      "type": "function"
    },
    {
      "inputs": [
        {
          "internalType": "address",
          "name": "owner",
          "type": "address"
        }
      ],
      "name": "balanceOf",
      "outputs": [
        {
          "internalType": "uint256",
          "name": "",
          "type": "uint256"
        }
      ],
      "stateMutability": "view",
      "type": "function"
    },
    {
      "inputs": [
        {
          "internalType": "string[]",
          "name": "tokenURI",
          "type": "string[]"
        },
        {
          "internalType": "address",
          "name": "token",
          "type": "address"
        },
        {
          "internalType": "uint256",
          "name": "price",
          "type": "uint256"
        }
      ],
      "name": "bulkMint",
      "outputs": [],
      "stateMutability": "payable",
      "type": "function"
    },
    {
      "inputs": [
        {
          "components": [
            {
              "internalType": "string",
              "name": "uri",
              "type": "string"
            },
            {
              "internalType": "uint256",
              "name": "price",
              "type": "uint256"
            },
            {
              "internalType": "address",
              "name": "token",
              "type": "address"
            },
            {
              "internalType": "bytes",
              "name": "signature",
              "type": "bytes"
            }
          ],
          "internalType": "struct GalileoProtocol.GalileoVoucher",
          "name": "voucher",
          "type": "tuple"
        },
        {
          "internalType": "address",
          "name": "owner",
          "type": "address"
        }
      ],
      "name": "buyNft",
      "outputs": [],
      "stateMutability": "payable",
      "type": "function"
    },
    {
      "inputs": [
        {
          "internalType": "address",
          "name": "",
          "type": "address"
        }
      ],
      "name": "count",
      "outputs": [
        {
          "internalType": "uint256",
          "name": "",
          "type": "uint256"
        }
      ],
      "stateMutability": "view",
      "type": "function"
    },
    {
      "inputs": [
        {
          "internalType": "address",
          "name": "",
          "type": "address"
        },
        {
          "internalType": "uint256",
          "name": "",
          "type": "uint256"
        }
      ],
      "name": "fee",
      "outputs": [
        {
          "internalType": "uint256",
          "name": "amount",
          "type": "uint256"
        },
        {
          "internalType": "address",
          "name": "token",
          "type": "address"
        },
        {
          "internalType": "uint256",
          "name": "fee",
          "type": "uint256"
        },
        {
          "internalType": "address",
          "name": "user",
          "type": "address"
        },
        {
          "internalType": "uint256",
          "name": "time",
          "type": "uint256"
        }
      ],
      "stateMutability": "view",
      "type": "function"
    },
    {
      "inputs": [
        {
          "internalType": "uint256",
          "name": "tokenId",
          "type": "uint256"
        }
      ],
      "name": "getApproved",
      "outputs": [
        {
          "internalType": "address",
          "name": "",
          "type": "address"
        }
      ],
      "stateMutability": "view",
      "type": "function"
    },
    {
      "inputs": [],
      "name": "getFee",
      "outputs": [
        {
          "internalType": "uint256",
          "name": "",
          "type": "uint256"
        }
      ],
      "stateMutability": "view",
      "type": "function"
    },
    {
      "inputs": [],
      "name": "getInitial",
      "outputs": [
        {
          "internalType": "string",
          "name": "",
          "type": "string"
        }
      ],
      "stateMutability": "view",
      "type": "function"
    },
    {
      "inputs": [
        {
          "internalType": "bytes32",
          "name": "role",
          "type": "bytes32"
        }
      ],
      "name": "getRoleAdmin",
      "outputs": [
        {
          "internalType": "bytes32",
          "name": "",
          "type": "bytes32"
        }
      ],
      "stateMutability": "view",
      "type": "function"
    },
    {
      "inputs": [
        {
          "internalType": "bytes32",
          "name": "role",
          "type": "bytes32"
        },
        {
          "internalType": "address",
          "name": "account",
          "type": "address"
        }
      ],
      "name": "grantRole",
      "outputs": [],
      "stateMutability": "nonpayable",
      "type": "function"
    },
    {
      "inputs": [
        {
          "internalType": "bytes32",
          "name": "role",
          "type": "bytes32"
        },
        {
          "internalType": "address",
          "name": "account",
          "type": "address"
        }
      ],
      "name": "hasRole",
      "outputs": [
        {
          "internalType": "bool",
          "name": "",
          "type": "bool"
        }
      ],
      "stateMutability": "view",
      "type": "function"
    },
    {
      "inputs": [
        {
          "internalType": "address",
          "name": "owner",
          "type": "address"
        },
        {
          "internalType": "address",
          "name": "operator",
          "type": "address"
        }
      ],
      "name": "isApprovedForAll",
      "outputs": [
        {
          "internalType": "bool",
          "name": "",
          "type": "bool"
        }
      ],
      "stateMutability": "view",
      "type": "function"
    },
    {
      "inputs": [
        {
          "internalType": "string",
          "name": "tokenURI",
          "type": "string"
        },
        {
          "internalType": "address",
          "name": "token",
          "type": "address"
        },
        {
          "internalType": "uint256",
          "name": "price",
          "type": "uint256"
        }
      ],
      "name": "mint",
      "outputs": [],
      "stateMutability": "nonpayable",
      "type": "function"
    },
    {
      "inputs": [],
      "name": "name",
      "outputs": [
        {
          "internalType": "string",
          "name": "",
          "type": "string"
        }
      ],
      "stateMutability": "view",
      "type": "function"
    },
    {
      "inputs": [],
      "name": "owner",
      "outputs": [
        {
          "internalType": "address",
          "name": "",
          "type": "address"
        }
      ],
      "stateMutability": "view",
      "type": "function"
    },
    {
      "inputs": [
        {
          "internalType": "uint256",
          "name": "tokenId",
          "type": "uint256"
        }
      ],
      "name": "ownerOf",
      "outputs": [
        {
          "internalType": "address",
          "name": "",
          "type": "address"
        }
      ],
      "stateMutability": "view",
      "type": "function"
    },
    {
      "inputs": [],
      "name": "renounceOwnership",
      "outputs": [],
      "stateMutability": "nonpayable",
      "type": "function"
    },
    {
      "inputs": [
        {
          "internalType": "bytes32",
          "name": "role",
          "type": "bytes32"
        },
        {
          "internalType": "address",
          "name": "account",
          "type": "address"
        }
      ],
      "name": "renounceRole",
      "outputs": [],
      "stateMutability": "nonpayable",
      "type": "function"
    },
    {
      "inputs": [
        {
          "internalType": "bytes32",
          "name": "role",
          "type": "bytes32"
        },
        {
          "internalType": "address",
          "name": "account",
          "type": "address"
        }
      ],
      "name": "revokeRole",
      "outputs": [],
      "stateMutability": "nonpayable",
      "type": "function"
    },
    {
      "inputs": [
        {
          "internalType": "address",
          "name": "from",
          "type": "address"
        },
        {
          "internalType": "address",
          "name": "to",
          "type": "address"
        },
        {
          "internalType": "uint256",
          "name": "tokenId",
          "type": "uint256"
        }
      ],
      "name": "safeTransferFrom",
      "outputs": [],
      "stateMutability": "nonpayable",
      "type": "function"
    },
    {
      "inputs": [
        {
          "internalType": "address",
          "name": "from",
          "type": "address"
        },
        {
          "internalType": "address",
          "name": "to",
          "type": "address"
        },
        {
          "internalType": "uint256",
          "name": "tokenId",
          "type": "uint256"
        },
        {
          "internalType": "bytes",
          "name": "data",
          "type": "bytes"
        }
      ],
      "name": "safeTransferFrom",
      "outputs": [],
      "stateMutability": "nonpayable",
      "type": "function"
    },
    {
      "inputs": [
        {
          "internalType": "uint256",
          "name": "",
          "type": "uint256"
        }
      ],
      "name": "serialid",
      "outputs": [
        {
          "internalType": "string",
          "name": "",
          "type": "string"
        }
      ],
      "stateMutability": "view",
      "type": "function"
    },
    {
      "inputs": [
        {
          "internalType": "address",
          "name": "operator",
          "type": "address"
        },
        {
          "internalType": "bool",
          "name": "approved",
          "type": "bool"
        }
      ],
      "name": "setApprovalForAll",
      "outputs": [],
      "stateMutability": "nonpayable",
      "type": "function"
    },
    {
      "inputs": [
        {
          "internalType": "uint256",
          "name": "fees",
          "type": "uint256"
        }
      ],
      "name": "setFee",
      "outputs": [],
      "stateMutability": "nonpayable",
      "type": "function"
    },
    {
      "inputs": [
        {
          "internalType": "string",
          "name": "fees",
          "type": "string"
        }
      ],
      "name": "setInitial",
      "outputs": [],
      "stateMutability": "nonpayable",
      "type": "function"
    },
    {
      "inputs": [
        {
          "internalType": "bytes4",
          "name": "interfaceId",
          "type": "bytes4"
        }
      ],
      "name": "supportsInterface",
      "outputs": [
        {
          "internalType": "bool",
          "name": "",
          "type": "bool"
        }
      ],
      "stateMutability": "view",
      "type": "function"
    },
    {
      "inputs": [],
      "name": "symbol",
      "outputs": [
        {
          "internalType": "string",
          "name": "",
          "type": "string"
        }
      ],
      "stateMutability": "view",
      "type": "function"
    },
    {
      "inputs": [
        {
          "internalType": "uint256",
          "name": "tokenId",
          "type": "uint256"
        }
      ],
      "name": "tokenURI",
      "outputs": [
        {
          "internalType": "string",
          "name": "",
          "type": "string"
        }
      ],
      "stateMutability": "view",
      "type": "function"
    },
    {
      "inputs": [],
      "name": "totalSupply",
      "outputs": [
        {
          "internalType": "uint256",
          "name": "",
          "type": "uint256"
        }
      ],
      "stateMutability": "view",
      "type": "function"
    },
    {
      "inputs": [
        {
          "internalType": "address",
          "name": "from",
          "type": "address"
        },
        {
          "internalType": "address",
          "name": "to",
          "type": "address"
        },
        {
          "internalType": "uint256",
          "name": "tokenId",
          "type": "uint256"
        }
      ],
      "name": "transferFrom",
      "outputs": [],
      "stateMutability": "nonpayable",
      "type": "function"
    },
    {
      "inputs": [
        {
          "internalType": "address",
          "name": "to",
          "type": "address"
        },
        {
          "internalType": "uint256[]",
          "name": "tokenIDs",
          "type": "uint256[]"
        }
      ],
      "name": "transferNftBunch",
      "outputs": [],
      "stateMutability": "nonpayable",
      "type": "function"
    },
    {
      "inputs": [
        {
          "internalType": "address",
          "name": "newOwner",
          "type": "address"
        }
      ],
      "name": "transferOwnership",
      "outputs": [],
      "stateMutability": "nonpayable",
      "type": "function"
    },
    {
      "inputs": [
        {
          "internalType": "uint256",
          "name": "",
          "type": "uint256"
        },
        {
          "internalType": "uint256",
          "name": "",
          "type": "uint256"
        }
      ],
      "name": "update",
      "outputs": [
        {
          "internalType": "uint256",
          "name": "tokenId",
          "type": "uint256"
        },
        {
          "internalType": "address",
          "name": "updater",
          "type": "address"
        },
        {
          "internalType": "string",
          "name": "oldURI",
          "type": "string"
        },
        {
          "internalType": "string",
          "name": "newURI",
          "type": "string"
        },
        {
          "internalType": "uint256",
          "name": "time",
          "type": "uint256"
        }
      ],
      "stateMutability": "view",
      "type": "function"
    },
    {
      "inputs": [
        {
          "internalType": "uint256[]",
          "name": "tokenIds",
          "type": "uint256[]"
        },
        {
          "internalType": "string[]",
          "name": "tokenURIs",
          "type": "string[]"
        }
      ],
      "name": "updateBulkUri",
      "outputs": [],
      "stateMutability": "nonpayable",
      "type": "function"
    },
    {
      "inputs": [
        {
          "internalType": "uint256",
          "name": "tokenIds",
          "type": "uint256"
        },
        {
          "internalType": "string",
          "name": "tokenURIs",
          "type": "string"
        }
      ],
      "name": "updateUri",
      "outputs": [],
      "stateMutability": "nonpayable",
      "type": "function"
    },
    {
      "inputs": [
        {
          "internalType": "uint256",
          "name": "tokenIds",
          "type": "uint256"
        },
        {
          "internalType": "string",
          "name": "tokenURIs",
          "type": "string"
        }
      ],
      "name": "updateUriAdmin",
      "outputs": [],
      "stateMutability": "nonpayable",
      "type": "function"
    },
    {
      "inputs": [
        {
          "internalType": "address",
          "name": "",
          "type": "address"
        }
      ],
      "name": "updatecount",
      "outputs": [
        {
          "internalType": "uint256",
          "name": "",
          "type": "uint256"
        }
      ],
      "stateMutability": "view",
      "type": "function"
    }
  ],
  "bytecode": "0x61018060405260036101408190526211d05360ea1b6101609081526200002991600d919062000415565b50601180546001600160a01b031916736f3b51bd5b67f3e5bca2fb32796215a796b796511790553480156200005d57600080fd5b506040516200493d3803806200493d8339810160408190526200008091620005a5565b6040518060400160405280601081526020016f11d85b1a5b195bcb541c9bdd1bd8dbdb60821b815250604051806040016040528060018152602001603160f81b8152508a8a8160009080519060200190620000dd92919062000415565b508051620000f390600190602084019062000415565b5050825160209384012082519284019290922060e08390526101008190524660a0818152604080517f8b73c3c69bb8fe3d512ecc4cf759cc79239f7b179b0ffacaa9a75d522b39400f818901819052818301979097526060810194909452608080850193909352308483018190528151808603909301835260c094850190915281519190960120905292909252610120525062000190336200022e565b6200019d60008862000280565b620001c97fd2e4c2619ea6e0faebc405d89445161c041e30fe03373ea0473da142d57d45148762000280565b600a859055600b80546001600160a01b038087166001600160a01b031992831617909255600c805492861692909116919091179055620002098262000290565b80516200021e90600f90602084019062000415565b50505050505050505050620006db565b600880546001600160a01b038381166001600160a01b0319831681179093556040519116919082907f8be0079c531659141344cd1fd0a4f28419497f9722a3daafe3b4186f6b6457e090600090a35050565b6200028c828262000313565b5050565b6200029a620003b7565b6001600160a01b038116620003055760405162461bcd60e51b815260206004820152602660248201527f4f776e61626c653a206e6577206f776e657220697320746865207a65726f206160448201526564647265737360d01b60648201526084015b60405180910390fd5b62000310816200022e565b50565b60008281526007602090815260408083206001600160a01b038516845290915290205460ff166200028c5760008281526007602090815260408083206001600160a01b03851684529091529020805460ff19166001179055620003733390565b6001600160a01b0316816001600160a01b0316837f2f8788117e7eff1d82e926ec794901d17c78024a50270940304540a733656f0d60405160405180910390a45050565b6008546001600160a01b03163314620004135760405162461bcd60e51b815260206004820181905260248201527f4f776e61626c653a2063616c6c6572206973206e6f7420746865206f776e65726044820152606401620002fc565b565b82805462000423906200069e565b90600052602060002090601f01602090048101928262000447576000855562000492565b82601f106200046257805160ff191683800117855562000492565b8280016001018555821562000492579182015b828111156200049257825182559160200191906001019062000475565b50620004a0929150620004a4565b5090565b5b80821115620004a05760008155600101620004a5565b634e487b7160e01b600052604160045260246000fd5b600082601f830112620004e357600080fd5b81516001600160401b0380821115620005005762000500620004bb565b604051601f8301601f19908116603f011681019082821181831017156200052b576200052b620004bb565b816040528381526020925086838588010111156200054857600080fd5b600091505b838210156200056c57858201830151818301840152908201906200054d565b838211156200057e5760008385830101525b9695505050505050565b80516001600160a01b0381168114620005a057600080fd5b919050565b60008060008060008060008060006101208a8c031215620005c557600080fd5b89516001600160401b0380821115620005dd57600080fd5b620005eb8d838e01620004d1565b9a5060208c01519150808211156200060257600080fd5b620006108d838e01620004d1565b99506200062060408d0162000588565b98506200063060608d0162000588565b975060808c015196506200064760a08d0162000588565b95506200065760c08d0162000588565b94506200066760e08d0162000588565b93506101008c01519150808211156200067f57600080fd5b506200068e8c828d01620004d1565b9150509295985092959850929598565b600181811c90821680620006b357607f821691505b60208210811415620006d557634e487b7160e01b600052602260045260246000fd5b50919050565b60805160a05160c05160e05161010051610120516142126200072b6000396000612f0201526000612f5101526000612f2c01526000612e8501526000612eaf01526000612ed901526142126000f3fe60806040526004361061023b5760003560e01c806370a082311161012e5780639e6eda18116100ab578063ced72f871161006f578063ced72f871461073b578063d547741f14610750578063e9653d1714610770578063e985e9c514610790578063f2fde38b146107d957600080fd5b80639e6eda1814610634578063a217fddf146106c6578063a22cb465146106db578063b88d4fde146106fb578063c87b56dd1461071b57600080fd5b8063880ce74f116100f2578063880ce74f146105ae5780638c82d9a8146105ce5780638da5cb5b146105e157806391d14854146105ff57806395d89b411461061f57600080fd5b806370a0823114610519578063715018a6146105395780637ce283661461054e5780637e8816b91461056e57806384262ba71461058e57600080fd5b8063248a9ca3116101bc5780633f3196fe116101805780633f3196fe1461048657806342842e0e146104995780635f5d1aa3146104b95780636352211e146104d957806369fe0e2d146104f957600080fd5b8063248a9ca3146103d057806326d9dae8146104005780632f2ff15d146104155780632fb565e81461043557806336568abe1461046657600080fd5b8063081812fc11610203578063081812fc14610316578063095ea7b31461034e5780630f022d501461036e57806318160ddd1461039b57806323b872dd146103b057600080fd5b806301ffc9a714610240578063022f23541461027557806305751204146102a557806305d85eda146102c757806306fdde03146102f4575b600080fd5b34801561024c57600080fd5b5061026061025b3660046134f9565b6107f9565b60405190151581526020015b60405180910390f35b34801561028157600080fd5b506102976000805160206141bd83398151915281565b60405190815260200161026c565b3480156102b157600080fd5b506102c56102c03660046135d3565b610819565b005b3480156102d357600080fd5b506102976102e2366004613635565b60136020526000908152604090205481565b34801561030057600080fd5b506103096109b0565b60405161026c91906136a8565b34801561032257600080fd5b506103366103313660046136bb565b610a42565b6040516001600160a01b03909116815260200161026c565b34801561035a57600080fd5b506102c56103693660046136d4565b610a69565b34801561037a57600080fd5b50610297610389366004613635565b60156020526000908152604090205481565b3480156103a757600080fd5b50600954610297565b3480156103bc57600080fd5b506102c56103cb3660046136fe565b610b7f565b3480156103dc57600080fd5b506102976103eb3660046136bb565b60009081526007602052604090206001015490565b34801561040c57600080fd5b50610309610bb0565b34801561042157600080fd5b506102c561043036600461373a565b610bbf565b34801561044157600080fd5b50610455610450366004613766565b610be4565b60405161026c959493929190613788565b34801561047257600080fd5b506102c561048136600461373a565b610d38565b6102c56104943660046137d7565b610db6565b3480156104a557600080fd5b506102c56104b43660046136fe565b611171565b3480156104c557600080fd5b506102c56104d436600461392d565b61118c565b3480156104e557600080fd5b506103366104f43660046136bb565b61140e565b34801561050557600080fd5b506102c56105143660046136bb565b61146e565b34801561052557600080fd5b50610297610534366004613635565b6114ba565b34801561054557600080fd5b506102c5611540565b34801561055a57600080fd5b506102c5610569366004613986565b611554565b34801561057a57600080fd5b506102c56105893660046139ba565b61157f565b34801561059a57600080fd5b506102c56105a9366004613a00565b6117f1565b3480156105ba57600080fd5b506103096105c93660046136bb565b6118b0565b6102c56105dc366004613a43565b61194a565b3480156105ed57600080fd5b506008546001600160a01b0316610336565b34801561060b57600080fd5b5061026061061a36600461373a565b611cbf565b34801561062b57600080fd5b50610309611cea565b34801561064057600080fd5b5061069461064f3660046136d4565b60126020908152600092835260408084209091529082529020805460018201546002830154600384015460049094015492936001600160a01b03928316939192169085565b604080519586526001600160a01b0394851660208701528501929092529091166060830152608082015260a00161026c565b3480156106d257600080fd5b50610297600081565b3480156106e757600080fd5b506102c56106f6366004613a88565b611cf9565b34801561070757600080fd5b506102c5610716366004613abf565b611d04565b34801561072757600080fd5b506103096107363660046136bb565b611d3c565b34801561074757600080fd5b50600a54610297565b34801561075c57600080fd5b506102c561076b36600461373a565b611e4d565b34801561077c57600080fd5b506102c561078b3660046135d3565b611e72565b34801561079c57600080fd5b506102606107ab366004613b3a565b6001600160a01b03918216600090815260056020908152604080832093909416825291909152205460ff1690565b3480156107e557600080fd5b506102c56107f4366004613635565b611fbd565b600061080482612036565b80610813575061081382612086565b92915050565b336108238361140e565b6001600160a01b03161461087e5760405162461bcd60e51b815260206004820152601f60248201527f4552433732313a2043616c6c6572206973206e6f7420746865206f776e65720060448201526064015b60405180910390fd5b600061088983611d3c565b905061089583836120ab565b6040805160a0810182528481523360208083018281528385018681526060850188905242608086015260008981526014845286812094815260158452868120548152938352949092208351815591516001830180546001600160a01b0319166001600160a01b03909216919091179055925180519293919261091d92600285019201906133cf565b50606082015180516109399160038401916020909101906133cf565b506080919091015160049091015533600090815260156020526040812080549161096283613b6c565b91905055336001600160a01b03167f87ad85a3307ce3203869a62508da1c4c9052f4f0f305a9227405996c58eb65a38585856040516109a393929190613b87565b60405180910390a3505050565b6060600080546109bf90613bbc565b80601f01602080910402602001604051908101604052809291908181526020018280546109eb90613bbc565b8015610a385780601f10610a0d57610100808354040283529160200191610a38565b820191906000526020600020905b815481529060010190602001808311610a1b57829003601f168201915b5050505050905090565b6000610a4d82612145565b506000908152600460205260409020546001600160a01b031690565b6000610a748261140e565b9050806001600160a01b0316836001600160a01b03161415610ae25760405162461bcd60e51b815260206004820152602160248201527f4552433732313a20617070726f76616c20746f2063757272656e74206f776e656044820152603960f91b6064820152608401610875565b336001600160a01b0382161480610afe5750610afe81336107ab565b610b705760405162461bcd60e51b815260206004820152603e60248201527f4552433732313a20617070726f76652063616c6c6572206973206e6f7420746f60448201527f6b656e206f776e6572206e6f7220617070726f76656420666f7220616c6c00006064820152608401610875565b610b7a83836121a4565b505050565b610b893382612212565b610ba55760405162461bcd60e51b815260040161087590613bf7565b610b7a838383612290565b6060600f80546109bf90613bbc565b600082815260076020526040902060010154610bda8161242c565b610b7a8383612436565b601460209081526000928352604080842090915290825290208054600182015460028301805492936001600160a01b0390921692610c2190613bbc565b80601f0160208091040260200160405190810160405280929190818152602001828054610c4d90613bbc565b8015610c9a5780601f10610c6f57610100808354040283529160200191610c9a565b820191906000526020600020905b815481529060010190602001808311610c7d57829003601f168201915b505050505090806003018054610caf90613bbc565b80601f0160208091040260200160405190810160405280929190818152602001828054610cdb90613bbc565b8015610d285780601f10610cfd57610100808354040283529160200191610d28565b820191906000526020600020905b815481529060010190602001808311610d0b57829003601f168201915b5050505050908060040154905085565b6001600160a01b0381163314610da85760405162461bcd60e51b815260206004820152602f60248201527f416363657373436f6e74726f6c3a2063616e206f6e6c792072656e6f756e636560448201526e103937b632b9903337b91039b2b63360891b6064820152608401610875565b610db282826124bc565b5050565b6000610dc183612523565b9050610ddb6000805160206141bd83398151915282611cbf565b610e205760405162461bcd60e51b815260206004820152601660248201527514da59db985d1d5c99481b9bdd0815995c9a599a595960521b6044820152606401610875565b60098054906000610e3083613b6c565b9190505550610e4133600954612614565b600954610e8c90610e528580613c45565b8080601f0160208091040260200160405190810160405280939291908181526020018383808284376000920191909152506120ab92505050565b610e9c6060840160408501613635565b6040516323b872dd60e01b81523360048201526001600160a01b0384811660248301526020860135604483015291909116906323b872dd906064016020604051808303816000875af1158015610ef6573d6000803e3d6000fd5b505050506040513d601f19601f82011682018060405250810190610f1a9190613c8b565b50600b54610f32906001600160a01b03166001611cf9565b610f506020840135610f4a6060860160408701613635565b8461262e565b600c54604080516344e52e2960e01b815290516001600160a01b039092169160009183916344e52e2991600480820192602092909190829003018187875af1158015610fa0573d6000803e3d6000fd5b505050506040513d601f19601f82011682018060405250810190610fc49190613ca8565b905080610fd081613b6c565b60405163a4a463ed60e01b8152600481018290529092506001600160a01b038416915063a4a463ed90602401600060405180830381600087803b15801561101657600080fd5b505af115801561102a573d6000803e3d6000fd5b50505050600d600f61103b836127bf565b60405160200161104d93929190613d30565b604051602081830303815290604052601090805190602001906110719291906133cf565b50600954604051636dedc6bb60e11b81526001600160a01b0384169163dbdb8d76916110a591601091309190600401613dd6565b600060405180830381600087803b1580156110bf57600080fd5b505af11580156110d3573d6000803e3d6000fd5b505060095460009081526016602052604090206010805491935091506110f890613bbc565b611103929190613453565b50600954336001600160a01b0316846001600160a01b03167fd8a93ee1e372999e0c3b38c15fbbea599bc7b39a99f1fd3480bcdb917198b4b38860200135886040516111629291909182526001600160a01b0316602082015260400190565b60405180910390a45050505050565b610b7a83838360405180602001604052806000815250611d04565b6000805160206141bd8339815191526111a48161242c565b82518251146111c55760405162461bcd60e51b815260040161087590613e04565b600082516001600160401b038111156111e0576111e0613516565b604051908082528060200260200182016040528015611209578160200160208202803683370190505b509050606060005b84518110156113a25761123c86828151811061122f5761122f613e3b565b6020026020010151611d3c565b915061127a86828151811061125357611253613e3b565b602002602001015186838151811061126d5761126d613e3b565b60200260200101516120ab565b6040518060a0016040528087838151811061129757611297613e3b565b60200260200101518152602001336001600160a01b031681526020018381526020018683815181106112cb576112cb613e3b565b6020026020010151815260200142815250601460008884815181106112f2576112f2613e3b565b6020908102919091018101518252818101929092526040908101600090812033825260158452828220548252835281902083518155838301516001820180546001600160a01b0319166001600160a01b039092169190911790559083015180519192611366926002850192909101906133cf565b50606082015180516113829160038401916020909101906133cf565b50608091909101516004909101558061139a81613b6c565b915050611211565b503360009081526015602052604081208054916113be83613b6c565b91905055336001600160a01b03167ff84343f31f3ba511b0f7437302edde3781e5087d1f466db95ea7e93a43a5597f8487856040516113ff93929190613e8c565b60405180910390a35050505050565b6000818152600260205260408120546001600160a01b0316806108135760405162461bcd60e51b8152602060048201526018602482015277115490cdcc8c4e881a5b9d985b1a59081d1bdad95b88125160421b6044820152606401610875565b6000805160206141bd8339815191526114868161242c565b600a82905560405182907facd827be3e57e81a1a507e29e5a32377e60a460332959ba92ab6286dd5181d5290600090a25050565b60006001600160a01b0382166115245760405162461bcd60e51b815260206004820152602960248201527f4552433732313a2061646472657373207a65726f206973206e6f7420612076616044820152683634b21037bbb732b960b91b6064820152608401610875565b506001600160a01b031660009081526003602052604090205490565b6115486128bc565b6115526000612916565b565b6000805160206141bd83398151915261156c8161242c565b8151610b7a90600f9060208501906133cf565b6000805160206141bd8339815191526115978161242c565b600980549060006115a783613b6c565b91905055506115b833600954612614565b6115c4600954856120ab565b600b546115db906001600160a01b03166001611cf9565b6115e682843361262e565b600c54604080516344e52e2960e01b815290516001600160a01b039092169160009183916344e52e2991600480820192602092909190829003018187875af1158015611636573d6000803e3d6000fd5b505050506040513d601f19601f8201168201806040525081019061165a9190613ca8565b90508061166681613b6c565b60405163a4a463ed60e01b8152600481018290529092506001600160a01b038416915063a4a463ed90602401600060405180830381600087803b1580156116ac57600080fd5b505af11580156116c0573d6000803e3d6000fd5b50505050600d600f6116d1836127bf565b6040516020016116e393929190613d30565b604051602081830303815290604052601090805190602001906117079291906133cf565b50600954604051636dedc6bb60e11b81526001600160a01b0384169163dbdb8d769161173b91601091309190600401613dd6565b600060405180830381600087803b15801561175557600080fd5b505af1158015611769573d6000803e3d6000fd5b5050600954600090815260166020526040902060108054919350915061178e90613bbc565b611799929190613453565b50336001600160a01b0316600954336001600160a01b03167f429d14c98263a67a4a1f62e23699216d5c79ccb511e4460a56e5b5bc7fc8731760106040516117e19190613f11565b60405180910390a4505050505050565b6000805160206141bd8339815191526118098161242c565b609682511061182a5760405162461bcd60e51b815260040161087590613e04565b60005b825181101561186c5761185a338585848151811061184d5761184d613e3b565b6020026020010151611171565b8061186481613b6c565b91505061182d565b50826001600160a01b0316336001600160a01b03167fbcbe7d6c5b63fe8107fbd8c2d742c0e8e2118060c5cc94c8c96f7655791ef53c846040516109a39190613f24565b601660205260009081526040902080546118c990613bbc565b80601f01602080910402602001604051908101604052809291908181526020018280546118f590613bbc565b80156119425780601f1061191757610100808354040283529160200191611942565b820191906000526020600020905b81548152906001019060200180831161192557829003601f168201915b505050505081565b6000805160206141bd8339815191526119628161242c565b60968451106119835760405162461bcd60e51b815260040161087590613e04565b600084516001600160401b0381111561199e5761199e613516565b6040519080825280602002602001820160405280156119c7578160200160208202803683370190505b50905060005b8551811015611c5b57600980549060006119e683613b6c565b91905055506119f733600954612614565b611a0f60095487838151811061126d5761126d613e3b565b600954828281518110611a2457611a24613e3b565b6020908102919091010152600b54611a46906001600160a01b03166001611cf9565b600c54604080516344e52e2960e01b815290516001600160a01b039092169160009183916344e52e2991600480820192602092909190829003018187875af1158015611a96573d6000803e3d6000fd5b505050506040513d601f19601f82011682018060405250810190611aba9190613ca8565b905080611ac681613b6c565b60405163a4a463ed60e01b8152600481018290529092506001600160a01b038416915063a4a463ed90602401600060405180830381600087803b158015611b0c57600080fd5b505af1158015611b20573d6000803e3d6000fd5b50505050600d600f611b31836127bf565b604051602001611b4393929190613d30565b60405160208183030381529060405260109080519060200190611b679291906133cf565b50600954604051636dedc6bb60e11b81526001600160a01b0384169163dbdb8d7691611b9b91601091309190600401613dd6565b600060405180830381600087803b158015611bb557600080fd5b505af1158015611bc9573d6000803e3d6000fd5b5050600e8054600181018255600091909152601080547fbb7b4a454dc3493923482f07822329ed19e8244eff582cc204f8554c3620c3fd90920193509150611c1090613bbc565b611c1b929190613453565b50600954600090815260166020526040902060108054611c3a90613bbc565b611c45929190613453565b5050508080611c5390613b6c565b9150506119cd565b506000855184611c6b9190613f37565b9050611c7881863361262e565b604051339081907ffbd026eeb38ded99122440ed746c525677dba3f851d0683f3e0172e3eff8d47c90611caf908690600e90613f56565b60405180910390a3505050505050565b60009182526007602090815260408084206001600160a01b0393909316845291905290205460ff1690565b6060600180546109bf90613bbc565b610db2338383612968565b611d0e3383612212565b611d2a5760405162461bcd60e51b815260040161087590613bf7565b611d3684848484612a2f565b50505050565b6060611d4782612145565b60008281526006602052604081208054611d6090613bbc565b80601f0160208091040260200160405190810160405280929190818152602001828054611d8c90613bbc565b8015611dd95780601f10611dae57610100808354040283529160200191611dd9565b820191906000526020600020905b815481529060010190602001808311611dbc57829003601f168201915b505050505090506000611df760408051602081019091526000815290565b9050805160001415611e0a575092915050565b815115611e3c578082604051602001611e24929190613fcc565b60405160208183030381529060405292505050919050565b611e4584612a62565b949350505050565b600082815260076020526040902060010154611e688161242c565b610b7a83836124bc565b6000805160206141bd833981519152611e8a8161242c565b6000611e9584611d3c565b9050611ea184846120ab565b6040805160a0810182528581523360208083018281528385018681526060850189905242608086015260008a81526014845286812094815260158452868120548152938352949092208351815591516001830180546001600160a01b0319166001600160a01b039092169190911790559251805192939192611f2992600285019201906133cf565b5060608201518051611f459160038401916020909101906133cf565b5060809190910151600490910155336000908152601560205260408120805491611f6e83613b6c565b91905055336001600160a01b03167f87ad85a3307ce3203869a62508da1c4c9052f4f0f305a9227405996c58eb65a3868685604051611faf93929190613b87565b60405180910390a350505050565b611fc56128bc565b6001600160a01b03811661202a5760405162461bcd60e51b815260206004820152602660248201527f4f776e61626c653a206e6577206f776e657220697320746865207a65726f206160448201526564647265737360d01b6064820152608401610875565b61203381612916565b50565b60006001600160e01b031982166380ac58cd60e01b148061206757506001600160e01b03198216635b5e139f60e01b145b8061081357506301ffc9a760e01b6001600160e01b0319831614610813565b60006001600160e01b03198216637965db0b60e01b1480610813575061081382612036565b6000828152600260205260409020546001600160a01b03166121265760405162461bcd60e51b815260206004820152602e60248201527f45524337323155524953746f726167653a2055524920736574206f66206e6f6e60448201526d32bc34b9ba32b73a103a37b5b2b760911b6064820152608401610875565b60008281526006602090815260409091208251610b7a928401906133cf565b6000818152600260205260409020546001600160a01b03166120335760405162461bcd60e51b8152602060048201526018602482015277115490cdcc8c4e881a5b9d985b1a59081d1bdad95b88125160421b6044820152606401610875565b600081815260046020526040902080546001600160a01b0319166001600160a01b03841690811790915581906121d98261140e565b6001600160a01b03167f8c5be1e5ebec7d5bd14f71427d1e84f3dd0314c0f7b2291e5b200ac8c7c3b92560405160405180910390a45050565b60008061221e8361140e565b9050806001600160a01b0316846001600160a01b0316148061226557506001600160a01b0380821660009081526005602090815260408083209388168352929052205460ff165b80611e455750836001600160a01b031661227e84610a42565b6001600160a01b031614949350505050565b826001600160a01b03166122a38261140e565b6001600160a01b0316146123075760405162461bcd60e51b815260206004820152602560248201527f4552433732313a207472616e736665722066726f6d20696e636f72726563742060448201526437bbb732b960d91b6064820152608401610875565b6001600160a01b0382166123695760405162461bcd60e51b8152602060048201526024808201527f4552433732313a207472616e7366657220746f20746865207a65726f206164646044820152637265737360e01b6064820152608401610875565b6123746000826121a4565b6001600160a01b038316600090815260036020526040812080546001929061239d908490613ffb565b90915550506001600160a01b03821660009081526003602052604081208054600192906123cb908490614012565b909155505060008181526002602052604080822080546001600160a01b0319166001600160a01b0386811691821790925591518493918716917fddf252ad1be2c89b69c2b068fc378daa952ba7f163c4a11628f55a4df523b3ef91a4505050565b6120338133612ad6565b6124408282611cbf565b610db25760008281526007602090815260408083206001600160a01b03851684529091529020805460ff191660011790556124783390565b6001600160a01b0316816001600160a01b0316837f2f8788117e7eff1d82e926ec794901d17c78024a50270940304540a733656f0d60405160405180910390a45050565b6124c68282611cbf565b15610db25760008281526007602090815260408083206001600160a01b0385168085529252808320805460ff1916905551339285917ff6391f5c32d9c69d2a47ea670b442974b53935d1edc7fd64eb21e047a839171b9190a45050565b6000806125c57ff1aad62298e89a773810bda7c04eed54e1dff65977862a39f83cfe5b06ccb5e66125548580613c45565b60405161256292919061402a565b604051809103902085602001358660400160208101906125829190613635565b60408051602081019590955284019290925260608301526001600160a01b0316608082015260a00160405160208183030381529060405280519060200120612b3a565b90506000611e45826125da6060870187613c45565b8080601f016020809104026020016040519081016040528093929190818152602001838380828437600092019190915250612b8892505050565b610db2828260405180602001604052806000815250612bac565b60006064600a54856126409190613f37565b61264a9190614050565b6040805160a0810182528681526001600160a01b0386811660208084019182528385018681523360608601818152426080880190815260009283526012855288832060138652898420805485529552888320975188559451600180890180549289166001600160a01b03199384161790559351600289015590516003880180549188169190921617905592516004958601559054825290849020015460115493516323b872dd60e01b8152878316938101939093529281166024830152604482018490529293509116906323b872dd906064016020604051808303816000875af115801561273c573d6000803e3d6000fd5b505050506040513d601f19601f820116820180604052508101906127609190613c8b565b5033600081815260136020526040812080548493889390927f0682cc575d549ef0d097c841c299443e0e82e1305d01882f4dbc51d23941377092916127a483613b6c565b9091555060405190815260200160405180910390a450505050565b6060816127e35750506040805180820190915260018152600360fc1b602082015290565b8160005b811561280d57806127f781613b6c565b91506128069050600a83614050565b91506127e7565b6000816001600160401b0381111561282757612827613516565b6040519080825280601f01601f191660200182016040528015612851576020820181803683370190505b5090505b8415611e4557612866600183613ffb565b9150612873600a86614064565b61287e906030614012565b60f81b81838151811061289357612893613e3b565b60200101906001600160f81b031916908160001a9053506128b5600a86614050565b9450612855565b6008546001600160a01b031633146115525760405162461bcd60e51b815260206004820181905260248201527f4f776e61626c653a2063616c6c6572206973206e6f7420746865206f776e65726044820152606401610875565b600880546001600160a01b038381166001600160a01b0319831681179093556040519116919082907f8be0079c531659141344cd1fd0a4f28419497f9722a3daafe3b4186f6b6457e090600090a35050565b816001600160a01b0316836001600160a01b031614156129ca5760405162461bcd60e51b815260206004820152601960248201527f4552433732313a20617070726f766520746f2063616c6c6572000000000000006044820152606401610875565b6001600160a01b03838116600081815260056020908152604080832094871680845294825291829020805460ff191686151590811790915591519182527f17307eab39ab6107e8899845ad3d59bd9653f200f220920489ca2b5937696c3191016109a3565b612a3a848484612290565b612a4684848484612bdf565b611d365760405162461bcd60e51b815260040161087590614078565b6060612a6d82612145565b6000612a8460408051602081019091526000815290565b90506000815111612aa45760405180602001604052806000815250612acf565b80612aae846127bf565b604051602001612abf929190613fcc565b6040516020818303038152906040525b9392505050565b612ae08282611cbf565b610db257612af8816001600160a01b03166014612cdd565b612b03836020612cdd565b604051602001612b149291906140ca565b60408051601f198184030181529082905262461bcd60e51b8252610875916004016136a8565b6000610813612b47612e78565b8360405161190160f01b6020820152602281018390526042810182905260009060620160405160208183030381529060405280519060200120905092915050565b6000806000612b978585612f9f565b91509150612ba481612fe5565b509392505050565b612bb683836131a0565b612bc36000848484612bdf565b610b7a5760405162461bcd60e51b815260040161087590614078565b60006001600160a01b0384163b15612cd257604051630a85bd0160e11b81526001600160a01b0385169063150b7a0290612c2390339089908890889060040161413f565b6020604051808303816000875af1925050508015612c5e575060408051601f3d908101601f19168201909252612c5b91810190614172565b60015b612cb8573d808015612c8c576040519150601f19603f3d011682016040523d82523d6000602084013e612c91565b606091505b508051612cb05760405162461bcd60e51b815260040161087590614078565b805181602001fd5b6001600160e01b031916630a85bd0160e11b149050611e45565b506001949350505050565b60606000612cec836002613f37565b612cf7906002614012565b6001600160401b03811115612d0e57612d0e613516565b6040519080825280601f01601f191660200182016040528015612d38576020820181803683370190505b509050600360fc1b81600081518110612d5357612d53613e3b565b60200101906001600160f81b031916908160001a905350600f60fb1b81600181518110612d8257612d82613e3b565b60200101906001600160f81b031916908160001a9053506000612da6846002613f37565b612db1906001614012565b90505b6001811115612e29576f181899199a1a9b1b9c1cb0b131b232b360811b85600f1660108110612de557612de5613e3b565b1a60f81b828281518110612dfb57612dfb613e3b565b60200101906001600160f81b031916908160001a90535060049490941c93612e228161418f565b9050612db4565b508315612acf5760405162461bcd60e51b815260206004820181905260248201527f537472696e67733a20686578206c656e67746820696e73756666696369656e746044820152606401610875565b6000306001600160a01b037f000000000000000000000000000000000000000000000000000000000000000016148015612ed157507f000000000000000000000000000000000000000000000000000000000000000046145b15612efb57507f000000000000000000000000000000000000000000000000000000000000000090565b50604080517f00000000000000000000000000000000000000000000000000000000000000006020808301919091527f0000000000000000000000000000000000000000000000000000000000000000828401527f000000000000000000000000000000000000000000000000000000000000000060608301524660808301523060a0808401919091528351808403909101815260c0909201909252805191012090565b600080825160411415612fd65760208301516040840151606085015160001a612fca878285856132e2565b94509450505050612fde565b506000905060025b9250929050565b6000816004811115612ff957612ff96141a6565b14156130025750565b6001816004811115613016576130166141a6565b14156130645760405162461bcd60e51b815260206004820152601860248201527f45434453413a20696e76616c6964207369676e617475726500000000000000006044820152606401610875565b6002816004811115613078576130786141a6565b14156130c65760405162461bcd60e51b815260206004820152601f60248201527f45434453413a20696e76616c6964207369676e6174757265206c656e677468006044820152606401610875565b60038160048111156130da576130da6141a6565b14156131335760405162461bcd60e51b815260206004820152602260248201527f45434453413a20696e76616c6964207369676e6174757265202773272076616c604482015261756560f01b6064820152608401610875565b6004816004811115613147576131476141a6565b14156120335760405162461bcd60e51b815260206004820152602260248201527f45434453413a20696e76616c6964207369676e6174757265202776272076616c604482015261756560f01b6064820152608401610875565b6001600160a01b0382166131f65760405162461bcd60e51b815260206004820181905260248201527f4552433732313a206d696e7420746f20746865207a65726f20616464726573736044820152606401610875565b6000818152600260205260409020546001600160a01b03161561325b5760405162461bcd60e51b815260206004820152601c60248201527f4552433732313a20746f6b656e20616c7265616479206d696e746564000000006044820152606401610875565b6001600160a01b0382166000908152600360205260408120805460019290613284908490614012565b909155505060008181526002602052604080822080546001600160a01b0319166001600160a01b03861690811790915590518392907fddf252ad1be2c89b69c2b068fc378daa952ba7f163c4a11628f55a4df523b3ef908290a45050565b6000807f7fffffffffffffffffffffffffffffff5d576e7357a4501ddfe92f46681b20a083111561331957506000905060036133c6565b8460ff16601b1415801561333157508460ff16601c14155b1561334257506000905060046133c6565b6040805160008082526020820180845289905260ff881692820192909252606081018690526080810185905260019060a0016020604051602081039080840390855afa158015613396573d6000803e3d6000fd5b5050604051601f1901519150506001600160a01b0381166133bf576000600192509250506133c6565b9150600090505b94509492505050565b8280546133db90613bbc565b90600052602060002090601f0160209004810192826133fd5760008555613443565b82601f1061341657805160ff1916838001178555613443565b82800160010185558215613443579182015b82811115613443578251825591602001919060010190613428565b5061344f9291506134ce565b5090565b82805461345f90613bbc565b90600052602060002090601f0160209004810192826134815760008555613443565b82601f106134925780548555613443565b8280016001018555821561344357600052602060002091601f016020900482015b828111156134435782548255916001019190600101906134b3565b5b8082111561344f57600081556001016134cf565b6001600160e01b03198116811461203357600080fd5b60006020828403121561350b57600080fd5b8135612acf816134e3565b634e487b7160e01b600052604160045260246000fd5b604051601f8201601f191681016001600160401b038111828210171561355457613554613516565b604052919050565b60006001600160401b0383111561357557613575613516565b613588601f8401601f191660200161352c565b905082815283838301111561359c57600080fd5b828260208301376000602084830101529392505050565b600082601f8301126135c457600080fd5b612acf8383356020850161355c565b600080604083850312156135e657600080fd5b8235915060208301356001600160401b0381111561360357600080fd5b61360f858286016135b3565b9150509250929050565b80356001600160a01b038116811461363057600080fd5b919050565b60006020828403121561364757600080fd5b612acf82613619565b60005b8381101561366b578181015183820152602001613653565b83811115611d365750506000910152565b60008151808452613694816020860160208601613650565b601f01601f19169290920160200192915050565b602081526000612acf602083018461367c565b6000602082840312156136cd57600080fd5b5035919050565b600080604083850312156136e757600080fd5b6136f083613619565b946020939093013593505050565b60008060006060848603121561371357600080fd5b61371c84613619565b925061372a60208501613619565b9150604084013590509250925092565b6000806040838503121561374d57600080fd5b8235915061375d60208401613619565b90509250929050565b6000806040838503121561377957600080fd5b50508035926020909101359150565b8581526001600160a01b038516602082015260a0604082018190526000906137b29083018661367c565b82810360608401526137c4818661367c565b9150508260808301529695505050505050565b600080604083850312156137ea57600080fd5b82356001600160401b0381111561380057600080fd5b83016080818603121561381257600080fd5b915061375d60208401613619565b60006001600160401b0382111561383957613839613516565b5060051b60200190565b600082601f83011261385457600080fd5b8135602061386961386483613820565b61352c565b82815260059290921b8401810191818101908684111561388857600080fd5b8286015b848110156138a3578035835291830191830161388c565b509695505050505050565b600082601f8301126138bf57600080fd5b813560206138cf61386483613820565b82815260059290921b840181019181810190868411156138ee57600080fd5b8286015b848110156138a35780356001600160401b038111156139115760008081fd5b61391f8986838b01016135b3565b8452509183019183016138f2565b6000806040838503121561394057600080fd5b82356001600160401b038082111561395757600080fd5b61396386838701613843565b9350602085013591508082111561397957600080fd5b5061360f858286016138ae565b60006020828403121561399857600080fd5b81356001600160401b038111156139ae57600080fd5b611e45848285016135b3565b6000806000606084860312156139cf57600080fd5b83356001600160401b038111156139e557600080fd5b6139f1868287016135b3565b93505061372a60208501613619565b60008060408385031215613a1357600080fd5b613a1c83613619565b915060208301356001600160401b03811115613a3757600080fd5b61360f85828601613843565b600080600060608486031215613a5857600080fd5b83356001600160401b03811115613a6e57600080fd5b6139f1868287016138ae565b801515811461203357600080fd5b60008060408385031215613a9b57600080fd5b613aa483613619565b91506020830135613ab481613a7a565b809150509250929050565b60008060008060808587031215613ad557600080fd5b613ade85613619565b9350613aec60208601613619565b92506040850135915060608501356001600160401b03811115613b0e57600080fd5b8501601f81018713613b1f57600080fd5b613b2e8782356020840161355c565b91505092959194509250565b60008060408385031215613b4d57600080fd5b61381283613619565b634e487b7160e01b600052601160045260246000fd5b6000600019821415613b8057613b80613b56565b5060010190565b838152606060208201526000613ba0606083018561367c565b8281036040840152613bb2818561367c565b9695505050505050565b600181811c90821680613bd057607f821691505b60208210811415613bf157634e487b7160e01b600052602260045260246000fd5b50919050565b6020808252602e908201527f4552433732313a2063616c6c6572206973206e6f7420746f6b656e206f776e6560408201526d1c881b9bdc88185c1c1c9bdd995960921b606082015260800190565b6000808335601e19843603018112613c5c57600080fd5b8301803591506001600160401b03821115613c7657600080fd5b602001915036819003821315612fde57600080fd5b600060208284031215613c9d57600080fd5b8151612acf81613a7a565b600060208284031215613cba57600080fd5b5051919050565b60008154613cce81613bbc565b60018281168015613ce65760018114613cf757613d26565b60ff19841687528287019450613d26565b8560005260208060002060005b85811015613d1d5781548a820152908401908201613d04565b50505082870194505b5050505092915050565b6000613d45613d3f8387613cc1565b85613cc1565b8351613d55818360208801613650565b0195945050505050565b60008154613d6c81613bbc565b808552602060018381168015613d895760018114613d9d57613dcb565b60ff19851688840152604088019550613dcb565b866000528260002060005b85811015613dc35781548a8201860152908301908401613da8565b890184019650505b505050505092915050565b606081526000613de96060830186613d5f565b6001600160a01b039490941660208301525060400152919050565b6020808252601c908201527f6c656e676874204d757374206265206c657373207468616e2031353000000000604082015260600190565b634e487b7160e01b600052603260045260246000fd5b600081518084526020808501945080840160005b83811015613e8157815187529582019590820190600101613e65565b509495945050505050565b606081526000613e9f6060830186613e51565b6020838203818501528186518084528284019150828160051b85010183890160005b83811015613eef57601f19878403018552613edd83835161367c565b94860194925090850190600101613ec1565b50508681036040880152613f03818961367c565b9a9950505050505050505050565b602081526000612acf6020830184613d5f565b602081526000612acf6020830184613e51565b6000816000190483118215151615613f5157613f51613b56565b500290565b604081526000613f696040830185613e51565b6020838203818501528185548084528284019150828160051b850101876000528360002060005b83811015613fbd57868303601f19018552613fab8383613d5f565b94860194925060019182019101613f90565b50909998505050505050505050565b60008351613fde818460208801613650565b835190830190613ff2818360208801613650565b01949350505050565b60008282101561400d5761400d613b56565b500390565b6000821982111561402557614025613b56565b500190565b8183823760009101908152919050565b634e487b7160e01b600052601260045260246000fd5b60008261405f5761405f61403a565b500490565b6000826140735761407361403a565b500690565b60208082526032908201527f4552433732313a207472616e7366657220746f206e6f6e20455243373231526560408201527131b2b4bb32b91034b6b83632b6b2b73a32b960711b606082015260800190565b7f416363657373436f6e74726f6c3a206163636f756e7420000000000000000000815260008351614102816017850160208801613650565b7001034b99036b4b9b9b4b733903937b6329607d1b6017918401918201528351614133816028840160208801613650565b01602801949350505050565b6001600160a01b0385811682528416602082015260408101839052608060608201819052600090613bb29083018461367c565b60006020828403121561418457600080fd5b8151612acf816134e3565b60008161419e5761419e613b56565b506000190190565b634e487b7160e01b600052602160045260246000fdfed2e4c2619ea6e0faebc405d89445161c041e30fe03373ea0473da142d57d4514a26469706673582212207c49324bcbfc72013135d0ef2fa21e19d50826817a90f9c3b436b46940b224fe64736f6c634300080c0033",
  "linkReferences": {},
  "deployedLinkReferences": {}
}